{"abi":[{"type":"function","name":"addOwnerWithThreshold","inputs":[{"name":"owner","type":"address","internalType":"address"},{"name":"_threshold","type":"uint256","internalType":"uint256"}],"outputs":[],"stateMutability":"nonpayable"},{"type":"function","name":"changeThreshold","inputs":[{"name":"_threshold","type":"uint256","internalType":"uint256"}],"outputs":[],"stateMutability":"nonpayable"},{"type":"function","name":"getOwners","inputs":[],"outputs":[{"name":"","type":"address[]","internalType":"address[]"}],"stateMutability":"view"},{"type":"function","name":"getThreshold","inputs":[],"outputs":[{"name":"","type":"uint256","internalType":"uint256"}],"stateMutability":"view"},{"type":"function","name":"isOwner","inputs":[{"name":"owner","type":"address","internalType":"address"}],"outputs":[{"name":"","type":"bool","internalType":"bool"}],"stateMutability":"view"},{"type":"function","name":"removeOwner","inputs":[{"name":"prevOwner","type":"address","internalType":"address"},{"name":"owner","type":"address","internalType":"address"},{"name":"_threshold","type":"uint256","internalType":"uint256"}],"outputs":[],"stateMutability":"nonpayable"},{"type":"function","name":"swapOwner","inputs":[{"name":"prevOwner","type":"address","internalType":"address"},{"name":"oldOwner","type":"address","internalType":"address"},{"name":"newOwner","type":"address","internalType":"address"}],"outputs":[],"stateMutability":"nonpayable"},{"type":"event","name":"AddedOwner","inputs":[{"name":"owner","type":"address","indexed":false,"internalType":"address"}],"anonymous":false},{"type":"event","name":"ChangedThreshold","inputs":[{"name":"threshold","type":"uint256","indexed":false,"internalType":"uint256"}],"anonymous":false},{"type":"event","name":"RemovedOwner","inputs":[{"name":"owner","type":"address","indexed":false,"internalType":"address"}],"anonymous":false}],"bytecode":{"object":"0x608060405234801561001057600080fd5b50610b35806100206000396000f3fe608060405234801561001057600080fd5b506004361061007d5760003560e01c8063a0e67e2b1161005b578063a0e67e2b14610107578063e318b52b1461015f578063e75235b814610197578063f8dc5dd9146101b15761007d565b80630d582f13146100825780632f54bf6e146100b0578063694e80c3146100ea575b600080fd5b6100ae6004803603604081101561009857600080fd5b506001600160a01b0381351690602001356101e7565b005b6100d6600480360360208110156100c657600080fd5b50356001600160a01b03166103a4565b604080519115158252519081900360200190f35b6100ae6004803603602081101561010057600080fd5b50356103df565b61010f6104d9565b60408051602080825283518183015283519192839290830191858101910280838360005b8381101561014b578181015183820152602001610133565b505050509050019250505060405180910390f35b6100ae6004803603606081101561017557600080fd5b506001600160a01b0381358116916020810135821691604090910135166105a4565b61019f610836565b60408051918252519081900360200190f35b6100ae600480360360608110156101c757600080fd5b506001600160a01b0381358116916020810135909116906040013561083c565b3330146102255760405162461bcd60e51b815260040180806020018281038252602c815260200180610ad5602c913960400191505060405180910390fd5b6001600160a01b0382161580159061024757506001600160a01b038216600114155b610286576040805162461bcd60e51b815260206004820152601e6024820152600080516020610a13833981519152604482015290519081900360640190fd5b6001600160a01b0382811660009081526020819052604090205416156102f3576040805162461bcd60e51b815260206004820152601b60248201527f4164647265737320697320616c726561647920616e206f776e65720000000000604482015290519081900360640190fd5b600060208181527fada5013122d395ba3c54772283fb069b10426056ef8ca54750cb9bb552a59e7d80546001600160a01b0386811680865260408087208054939094166001600160a01b0319938416179093556001958690528354909116811790925583548401909355825190815291517f9465fa0c962cc76958e6373a993326400c1c94f8be2fe3a952adfa7f60b2ea269281900390910190a180600254146103a0576103a0816103df565b5050565b60006001600160a01b0382166001148015906103d957506001600160a01b038281166000908152602081905260409020541615155b92915050565b33301461041d5760405162461bcd60e51b815260040180806020018281038252602c815260200180610ad5602c913960400191505060405180910390fd5b60015481111561045e5760405162461bcd60e51b8152600401808060200182810382526023815260200180610a336023913960400191505060405180910390fd5b600181101561049e5760405162461bcd60e51b8152600401808060200182810382526024815260200180610ab16024913960400191505060405180910390fd5b60028190556040805182815290517f610f7ff2b304ae8903c3de74c60c6ab1f7d6226b3f52c5161905bb5ad4039c939181900360200190a150565b606080600154604051908082528060200260200182016040528015610508578160200160208202803883390190505b506001600090815260208190527fada5013122d395ba3c54772283fb069b10426056ef8ca54750cb9bb552a59e7d54919250906001600160a01b03165b6001600160a01b03811660011461059c578083838151811061056357fe5b6001600160a01b039283166020918202929092018101919091529181166000908152918290526040909120546001929092019116610545565b509091505090565b3330146105e25760405162461bcd60e51b815260040180806020018281038252602c815260200180610ad5602c913960400191505060405180910390fd5b6001600160a01b0381161580159061060457506001600160a01b038116600114155b610643576040805162461bcd60e51b815260206004820152601e6024820152600080516020610a13833981519152604482015290519081900360640190fd5b6001600160a01b0381811660009081526020819052604090205416156106b0576040805162461bcd60e51b815260206004820152601b60248201527f4164647265737320697320616c726561647920616e206f776e65720000000000604482015290519081900360640190fd5b6001600160a01b038216158015906106d257506001600160a01b038216600114155b610711576040805162461bcd60e51b815260206004820152601e6024820152600080516020610a13833981519152604482015290519081900360640190fd5b6001600160a01b0383811660009081526020819052604090205481169083161461076c5760405162461bcd60e51b8152600401808060200182810382526026815260200180610a8b6026913960400191505060405180910390fd5b6001600160a01b03828116600081815260208181526040808320805487871680865283862080549289166001600160a01b0319938416179055968a16855282852080548216909717909655928490528254909416909155825191825291517ff8d49fc529812e9a7c5c50e69c20f0dccc0db8fa95c98bc58cc9a4f1c1299eaf929181900390910190a1604080516001600160a01b038316815290517f9465fa0c962cc76958e6373a993326400c1c94f8be2fe3a952adfa7f60b2ea269181900360200190a1505050565b60025490565b33301461087a5760405162461bcd60e51b815260040180806020018281038252602c815260200180610ad5602c913960400191505060405180910390fd5b80600180540310156108bd5760405162461bcd60e51b8152600401808060200182810382526035815260200180610a566035913960400191505060405180910390fd5b6001600160a01b038216158015906108df57506001600160a01b038216600114155b61091e576040805162461bcd60e51b815260206004820152601e6024820152600080516020610a13833981519152604482015290519081900360640190fd5b6001600160a01b038381166000908152602081905260409020548116908316146109795760405162461bcd60e51b8152600401808060200182810382526026815260200180610a8b6026913960400191505060405180910390fd5b6001600160a01b03828116600081815260208181526040808320805489871685528285208054919097166001600160a01b03199182161790965592849052825490941690915560018054600019019055825191825291517ff8d49fc529812e9a7c5c50e69c20f0dccc0db8fa95c98bc58cc9a4f1c1299eaf929181900390910190a18060025414610a0d57610a0d816103df565b50505056fe496e76616c6964206f776e657220616464726573732070726f766964656400005468726573686f6c642063616e6e6f7420657863656564206f776e657220636f756e744e6577206f776e657220636f756e74206e6565647320746f206265206c6172676572207468616e206e6577207468726573686f6c64496e76616c696420707265764f776e65722c206f776e657220706169722070726f76696465645468726573686f6c64206e6565647320746f2062652067726561746572207468616e20304d6574686f642063616e206f6e6c792062652063616c6c65642066726f6d207468697320636f6e7472616374a265627a7a72315820be5be756a632ac3ae67f7a9651dffe02f0da363fac7d83d72fce9fa1b985be4a64736f6c63430005110032","linkReferences":{}},"methodIdentifiers":{"addOwnerWithThreshold(address,uint256)":"0d582f13","changeThreshold(uint256)":"694e80c3","getOwners()":"a0e67e2b","getThreshold()":"e75235b8","isOwner(address)":"2f54bf6e","removeOwner(address,address,uint256)":"f8dc5dd9","swapOwner(address,address,address)":"e318b52b"},"id":22}