{"abi":[{"type":"function","name":"changeMasterCopy","inputs":[{"name":"_masterCopy","type":"address","internalType":"address"}],"outputs":[],"stateMutability":"nonpayable"},{"type":"event","name":"ChangedMasterCopy","inputs":[{"name":"masterCopy","type":"address","indexed":false,"internalType":"address"}],"anonymous":false}],"bytecode":{"object":"0x608060405234801561001057600080fd5b506101b4806100206000396000f3fe608060405234801561001057600080fd5b506004361061002b5760003560e01c80637de7edef14610030575b600080fd5b6100566004803603602081101561004657600080fd5b50356001600160a01b0316610058565b005b3330146100965760405162461bcd60e51b815260040180806020018281038252602c815260200180610154602c913960400191505060405180910390fd5b6001600160a01b0381166100db5760405162461bcd60e51b81526004018080602001828103825260248152602001806101306024913960400191505060405180910390fd5b600080546001600160a01b0383166001600160a01b0319909116811790915560408051918252517f75e41bc35ff1bf14d81d1d2f649c0084a0f974f9289c803ec9898eeec4c8d0b89181900360200190a15056fe496e76616c6964206d617374657220636f707920616464726573732070726f76696465644d6574686f642063616e206f6e6c792062652063616c6c65642066726f6d207468697320636f6e7472616374a265627a7a723158208c38d76f4095dcab42a2633c5a7ba06e34052998371861a62432f4d763462eba64736f6c63430005110032","linkReferences":{}},"methodIdentifiers":{"changeMasterCopy(address)":"7de7edef"},"id":24}