{"abi":[{"type":"function","name":"changeMasterCopy","inputs":[{"name":"_masterCopy","type":"address","internalType":"address"}],"outputs":[],"stateMutability":"nonpayable"},{"type":"function","name":"manager","inputs":[],"outputs":[{"name":"","type":"address","internalType":"contract ModuleManager"}],"stateMutability":"view"},{"type":"event","name":"ChangedMasterCopy","inputs":[{"name":"masterCopy","type":"address","indexed":false,"internalType":"address"}],"anonymous":false}],"bytecode":{"object":"0x608060405234801561001057600080fd5b506101f7806100206000396000f3fe608060405234801561001057600080fd5b50600436106100365760003560e01c8063481c6a751461003b5780637de7edef1461005f575b600080fd5b610043610087565b604080516001600160a01b039092168252519081900360200190f35b6100856004803603602081101561007557600080fd5b50356001600160a01b0316610096565b005b6001546001600160a01b031681565b6001546001600160a01b031633146100df5760405162461bcd60e51b815260040180806020018281038252602681526020018061019d6026913960400191505060405180910390fd5b6001600160a01b0381166101245760405162461bcd60e51b81526004018080602001828103825260248152602001806101796024913960400191505060405180910390fd5b600080546001600160a01b0383166001600160a01b0319909116811790915560408051918252517f75e41bc35ff1bf14d81d1d2f649c0084a0f974f9289c803ec9898eeec4c8d0b89181900360200190a15056fe496e76616c6964206d617374657220636f707920616464726573732070726f76696465644d6574686f642063616e206f6e6c792062652063616c6c65642066726f6d206d616e61676572a265627a7a72315820e94bdae6af7c9e2eca58f4c1451cf5bdf0bb5d0c15996558a836e9e649bec58b64736f6c63430005110032","linkReferences":{}},"methodIdentifiers":{"changeMasterCopy(address)":"7de7edef","manager()":"481c6a75"},"id":20}