{"abi":[{"type":"function","name":"call","inputs":[{"name":"to","type":"address","internalType":"address"},{"name":"data","type":"bytes","internalType":"bytes"}],"outputs":[],"stateMutability":"nonpayable"},{"type":"function","name":"onERC1155BatchReceived","inputs":[{"name":"","type":"address","internalType":"address"},{"name":"","type":"address","internalType":"address"},{"name":"","type":"uint256[]","internalType":"uint256[]"},{"name":"","type":"uint256[]","internalType":"uint256[]"},{"name":"","type":"bytes","internalType":"bytes"}],"outputs":[{"name":"","type":"bytes4","internalType":"bytes4"}],"stateMutability":"nonpayable"},{"type":"function","name":"onERC1155Received","inputs":[{"name":"","type":"address","internalType":"address"},{"name":"","type":"address","internalType":"address"},{"name":"","type":"uint256","internalType":"uint256"},{"name":"","type":"uint256","internalType":"uint256"},{"name":"","type":"bytes","internalType":"bytes"}],"outputs":[{"name":"","type":"bytes4","internalType":"bytes4"}],"stateMutability":"nonpayable"},{"type":"function","name":"supportsInterface","inputs":[{"name":"interfaceId","type":"bytes4","internalType":"bytes4"}],"outputs":[{"name":"","type":"bool","internalType":"bool"}],"stateMutability":"view"}],"bytecode":{"object":"0x608060405261001d6301ffc9a760e01b6001600160e01b0361003b16565b610036630271189760e51b6001600160e01b0361003b16565b6100bf565b6001600160e01b0319808216141561009a576040805162461bcd60e51b815260206004820152601c60248201527f4552433136353a20696e76616c696420696e7465726661636520696400000000604482015290519081900360640190fd5b6001600160e01b0319166000908152602081905260409020805460ff19166001179055565b61045a806100ce6000396000f3fe608060405234801561001057600080fd5b506004361061004c5760003560e01c806301ffc9a7146100515780631b8b921d1461008c578063bc197c811461010c578063f23a6e6114610250575b600080fd5b6100786004803603602081101561006757600080fd5b50356001600160e01b0319166102e3565b604080519115158252519081900360200190f35b61010a600480360360408110156100a257600080fd5b6001600160a01b038235169190810190604081016020820135600160201b8111156100cc57600080fd5b8201836020820111156100de57600080fd5b803590602001918460018302840111600160201b831117156100ff57600080fd5b509092509050610302565b005b610233600480360360a081101561012257600080fd5b6001600160a01b038235811692602081013590911691810190606081016040820135600160201b81111561015557600080fd5b82018360208201111561016757600080fd5b803590602001918460208302840111600160201b8311171561018857600080fd5b919390929091602081019035600160201b8111156101a557600080fd5b8201836020820111156101b757600080fd5b803590602001918460208302840111600160201b831117156101d857600080fd5b919390929091602081019035600160201b8111156101f557600080fd5b82018360208201111561020757600080fd5b803590602001918460018302840111600160201b8311171561022857600080fd5b5090925090506103ff565b604080516001600160e01b03199092168252519081900360200190f35b610233600480360360a081101561026657600080fd5b6001600160a01b03823581169260208101359091169160408201359160608101359181019060a081016080820135600160201b8111156102a557600080fd5b8201836020820111156102b757600080fd5b803590602001918460018302840111600160201b831117156102d857600080fd5b509092509050610413565b6001600160e01b03191660009081526020819052604090205460ff1690565b60006060846001600160a01b03168484604051808383808284376040519201945060009350909150508083038183865af19150503d8060008114610362576040519150601f19603f3d011682016040523d82523d6000602084013e610367565b606091505b50915091508181906103f75760405162461bcd60e51b81526004018080602001828103825283818151815260200191508051906020019080838360005b838110156103bc5781810151838201526020016103a4565b50505050905090810190601f1680156103e95780820380516001836020036101000a031916815260200191505b509250505060405180910390fd5b505050505050565b63bc197c8160e01b98975050505050505050565b63f23a6e6160e01b969550505050505056fea265627a7a72315820bf1821ca1fafc8dbe7be2df23ffd9139814f761ff2c96bc8d65a48c7a7e24d0064736f6c63430005110032","linkReferences":{}},"methodIdentifiers":{"call(address,bytes)":"1b8b921d","onERC1155BatchReceived(address,address,uint256[],uint256[],bytes)":"bc197c81","onERC1155Received(address,address,uint256,uint256,bytes)":"f23a6e61","supportsInterface(bytes4)":"01ffc9a7"},"id":36}