{"abi":[{"type":"function","name":"disableModule","inputs":[{"name":"prevModule","type":"address","internalType":"contract Module"},{"name":"module","type":"address","internalType":"contract Module"}],"outputs":[],"stateMutability":"nonpayable"},{"type":"function","name":"enableModule","inputs":[{"name":"module","type":"address","internalType":"contract Module"}],"outputs":[],"stateMutability":"nonpayable"},{"type":"function","name":"execTransactionFromModule","inputs":[{"name":"to","type":"address","internalType":"address"},{"name":"value","type":"uint256","internalType":"uint256"},{"name":"data","type":"bytes","internalType":"bytes"},{"name":"operation","type":"uint8","internalType":"enum Enum.Operation"}],"outputs":[{"name":"success","type":"bool","internalType":"bool"}],"stateMutability":"nonpayable"},{"type":"function","name":"execTransactionFromModuleReturnData","inputs":[{"name":"to","type":"address","internalType":"address"},{"name":"value","type":"uint256","internalType":"uint256"},{"name":"data","type":"bytes","internalType":"bytes"},{"name":"operation","type":"uint8","internalType":"enum Enum.Operation"}],"outputs":[{"name":"success","type":"bool","internalType":"bool"},{"name":"returnData","type":"bytes","internalType":"bytes"}],"stateMutability":"nonpayable"},{"type":"function","name":"getModules","inputs":[],"outputs":[{"name":"","type":"address[]","internalType":"address[]"}],"stateMutability":"view"},{"type":"function","name":"getModulesPaginated","inputs":[{"name":"start","type":"address","internalType":"address"},{"name":"pageSize","type":"uint256","internalType":"uint256"}],"outputs":[{"name":"array","type":"address[]","internalType":"address[]"},{"name":"next","type":"address","internalType":"address"}],"stateMutability":"view"},{"type":"event","name":"DisabledModule","inputs":[{"name":"module","type":"address","indexed":false,"internalType":"contract Module"}],"anonymous":false},{"type":"event","name":"EnabledModule","inputs":[{"name":"module","type":"address","indexed":false,"internalType":"contract Module"}],"anonymous":false},{"type":"event","name":"ExecutionFromModuleFailure","inputs":[{"name":"module","type":"address","indexed":true,"internalType":"address"}],"anonymous":false},{"type":"event","name":"ExecutionFromModuleSuccess","inputs":[{"name":"module","type":"address","indexed":true,"internalType":"address"}],"anonymous":false}],"bytecode":{"object":"0x608060405234801561001057600080fd5b50610a38806100206000396000f3fe608060405234801561001057600080fd5b50600436106100625760003560e01c8063468721a7146100675780635229073f1461013b578063610b59251461027e578063b2494df3146102a6578063cc2f8452146102fe578063e009cfde14610397575b600080fd5b6101276004803603608081101561007d57600080fd5b6001600160a01b03823516916020810135918101906060810160408201356401000000008111156100ad57600080fd5b8201836020820111156100bf57600080fd5b803590602001918460018302840111640100000000831117156100e157600080fd5b91908080601f0160208091040260200160405190810160405280939291908181526020018383808284376000920191909152509295505050903560ff1691506103c59050565b604080519115158252519081900360200190f35b6101fb6004803603608081101561015157600080fd5b6001600160a01b038235169160208101359181019060608101604082013564010000000081111561018157600080fd5b82018360208201111561019357600080fd5b803590602001918460018302840111640100000000831117156101b557600080fd5b91908080601f0160208091040260200160405190810160405280939291908181526020018383808284376000920191909152509295505050903560ff1691506104a39050565b604051808315151515815260200180602001828103825283818151815260200191508051906020019080838360005b8381101561024257818101518382015260200161022a565b50505050905090810190601f16801561026f5780820380516001836020036101000a031916815260200191505b50935050505060405180910390f35b6102a46004803603602081101561029457600080fd5b50356001600160a01b03166104d9565b005b6102ae61068a565b60408051602080825283518183015283519192839290830191858101910280838360005b838110156102ea5781810151838201526020016102d2565b505050509050019250505060405180910390f35b61032a6004803603604081101561031457600080fd5b506001600160a01b0381351690602001356106a0565b6040518080602001836001600160a01b03166001600160a01b03168152602001828103825284818151815260200191508051906020019060200280838360005b8381101561038257818101518382015260200161036a565b50505050905001935050505060405180910390f35b6102a4600480360360408110156103ad57600080fd5b506001600160a01b0381358116916020013516610775565b6000336001148015906103ef5750336000908152602081905260409020546001600160a01b031615155b61042a5760405162461bcd60e51b81526004018080602001828103825260308152602001806109d46030913960400191505060405180910390fd5b610437858585855a6108fd565b9050801561046f5760405133907f6895c13664aa4f67288b25d7a21d7aaa34916e355fb9b6fae0a139a9085becb890600090a261049b565b60405133907facd2c8702804128fdb0db2bb49f6d127dd0181c13fd45dbfe16de0930e2bd37590600090a25b949350505050565b600060606104b3868686866103c5565b915060405160203d0181016040523d81523d6000602083013e8091505094509492505050565b3330146105175760405162461bcd60e51b815260040180806020018281038252602c8152602001806109a8602c913960400191505060405180910390fd5b6001600160a01b0381161580159061053957506001600160a01b038116600114155b61058a576040805162461bcd60e51b815260206004820152601f60248201527f496e76616c6964206d6f64756c6520616464726573732070726f766964656400604482015290519081900360640190fd5b6001600160a01b0381811660009081526020819052604090205416156105f7576040805162461bcd60e51b815260206004820152601d60248201527f4d6f64756c652068617320616c7265616479206265656e206164646564000000604482015290519081900360640190fd5b600060208181527fada5013122d395ba3c54772283fb069b10426056ef8ca54750cb9bb552a59e7d80546001600160a01b0385811680865260408087208054939094166001600160a01b031993841617909355600190955282541684179091558051928352517fecdf3a3effea5783a3c4c2140e677577666428d44ed9d474a0b3a4c9943f84409281900390910190a150565b6060806106996001600a6106a0565b5091505090565b60606000826040519080825280602002602001820160405280156106ce578160200160208202803883390190505b506001600160a01b0380861660009081526020819052604081205492945091165b6001600160a01b0381161580159061071157506001600160a01b038116600114155b801561071c57508482105b15610767578084838151811061072e57fe5b6001600160a01b0392831660209182029290920181019190915291811660009081529182905260409091205460019290920191166106ef565b908352919491935090915050565b3330146107b35760405162461bcd60e51b815260040180806020018281038252602c8152602001806109a8602c913960400191505060405180910390fd5b6001600160a01b038116158015906107d557506001600160a01b038116600114155b610826576040805162461bcd60e51b815260206004820152601f60248201527f496e76616c6964206d6f64756c6520616464726573732070726f766964656400604482015290519081900360640190fd5b6001600160a01b038281166000908152602081905260409020548116908216146108815760405162461bcd60e51b81526004018080602001828103825260288152602001806109806028913960400191505060405180910390fd5b6001600160a01b03818116600081815260208181526040808320805488871685528285208054919097166001600160a01b031991821617909655928490528254909416909155825191825291517faab4fa2b463f581b2b32cb3b7e3b704b9ce37cc209b5fb4d77e593ace4054276929181900390910190a15050565b60008083600181111561090c57fe5b14156109255761091e86868685610951565b9050610948565b600183600181111561093357fe5b14156109445761091e868584610969565b5060005b95945050505050565b6000806000845160208601878987f195945050505050565b60008060008451602086018786f494935050505056fe496e76616c696420707265764d6f64756c652c206d6f64756c6520706169722070726f76696465644d6574686f642063616e206f6e6c792062652063616c6c65642066726f6d207468697320636f6e74726163744d6574686f642063616e206f6e6c792062652063616c6c65642066726f6d20616e20656e61626c6564206d6f64756c65a265627a7a723158204631558cf4649bf39b810f41a63662c547d2b3777cb281b95eed8a43e11e341b64736f6c63430005110032","linkReferences":{}},"methodIdentifiers":{"disableModule(address,address)":"e009cfde","enableModule(address)":"610b5925","execTransactionFromModule(address,uint256,bytes,uint8)":"468721a7","execTransactionFromModuleReturnData(address,uint256,bytes,uint8)":"5229073f","getModules()":"b2494df3","getModulesPaginated(address,uint256)":"cc2f8452"},"id":21}