{"abi":[{"type":"fallback","stateMutability":"payable"},{"type":"function","name":"setFallbackHandler","inputs":[{"name":"handler","type":"address","internalType":"address"}],"outputs":[],"stateMutability":"nonpayable"}],"bytecode":{"object":"0x608060405234801561001057600080fd5b5061018c806100206000396000f3fe60806040526004361061001e5760003560e01c8063f08a03231461008f575b600034118061002b575036155b156100355761008d565b7f6c9a6c4a39284e37ed1cf53d337577d14212a4870fb976a4366c693b939918d580546001600160a01b0381161561008a57366000803760008036600080855af13d6000803e80610085573d6000fd5b3d6000f35b50505b005b34801561009b57600080fd5b5061008d600480360360208110156100b257600080fd5b50356001600160a01b03163330146100fb5760405162461bcd60e51b815260040180806020018281038252602c81526020018061012c602c913960400191505060405180910390fd5b61010481610107565b50565b7f6c9a6c4a39284e37ed1cf53d337577d14212a4870fb976a4366c693b939918d55556fe4d6574686f642063616e206f6e6c792062652063616c6c65642066726f6d207468697320636f6e7472616374a265627a7a72315820bf10052d515464e3538f770480fdac28e4dde260fcdb38a094178b4b0a2fa18d64736f6c63430005110032","linkReferences":{}},"methodIdentifiers":{"setFallbackHandler(address)":"f08a0323"},"id":19}