{"abi":[{"type":"constructor","inputs":[],"stateMutability":"nonpayable"},{"type":"function","name":"balanceOf","inputs":[{"name":"owner","type":"address","internalType":"address"},{"name":"id","type":"uint256","internalType":"uint256"}],"outputs":[{"name":"","type":"uint256","internalType":"uint256"}],"stateMutability":"view"},{"type":"function","name":"balanceOfBatch","inputs":[{"name":"owners","type":"address[]","internalType":"address[]"},{"name":"ids","type":"uint256[]","internalType":"uint256[]"}],"outputs":[{"name":"","type":"uint256[]","internalType":"uint256[]"}],"stateMutability":"view"},{"type":"function","name":"isApprovedForAll","inputs":[{"name":"owner","type":"address","internalType":"address"},{"name":"operator","type":"address","internalType":"address"}],"outputs":[{"name":"","type":"bool","internalType":"bool"}],"stateMutability":"view"},{"type":"function","name":"safeBatchTransferFrom","inputs":[{"name":"from","type":"address","internalType":"address"},{"name":"to","type":"address","internalType":"address"},{"name":"ids","type":"uint256[]","internalType":"uint256[]"},{"name":"values","type":"uint256[]","internalType":"uint256[]"},{"name":"data","type":"bytes","internalType":"bytes"}],"outputs":[],"stateMutability":"nonpayable"},{"type":"function","name":"safeTransferFrom","inputs":[{"name":"from","type":"address","internalType":"address"},{"name":"to","type":"address","internalType":"address"},{"name":"id","type":"uint256","internalType":"uint256"},{"name":"value","type":"uint256","internalType":"uint256"},{"name":"data","type":"bytes","internalType":"bytes"}],"outputs":[],"stateMutability":"nonpayable"},{"type":"function","name":"setApprovalForAll","inputs":[{"name":"operator","type":"address","internalType":"address"},{"name":"approved","type":"bool","internalType":"bool"}],"outputs":[],"stateMutability":"nonpayable"},{"type":"function","name":"supportsInterface","inputs":[{"name":"interfaceId","type":"bytes4","internalType":"bytes4"}],"outputs":[{"name":"","type":"bool","internalType":"bool"}],"stateMutability":"view"},{"type":"event","name":"ApprovalForAll","inputs":[{"name":"owner","type":"address","indexed":true,"internalType":"address"},{"name":"operator","type":"address","indexed":true,"internalType":"address"},{"name":"approved","type":"bool","indexed":false,"internalType":"bool"}],"anonymous":false},{"type":"event","name":"TransferBatch","inputs":[{"name":"operator","type":"address","indexed":true,"internalType":"address"},{"name":"from","type":"address","indexed":true,"internalType":"address"},{"name":"to","type":"address","indexed":true,"internalType":"address"},{"name":"ids","type":"uint256[]","indexed":false,"internalType":"uint256[]"},{"name":"values","type":"uint256[]","indexed":false,"internalType":"uint256[]"}],"anonymous":false},{"type":"event","name":"TransferSingle","inputs":[{"name":"operator","type":"address","indexed":true,"internalType":"address"},{"name":"from","type":"address","indexed":true,"internalType":"address"},{"name":"to","type":"address","indexed":true,"internalType":"address"},{"name":"id","type":"uint256","indexed":false,"internalType":"uint256"},{"name":"value","type":"uint256","indexed":false,"internalType":"uint256"}],"anonymous":false},{"type":"event","name":"URI","inputs":[{"name":"value","type":"string","indexed":false,"internalType":"string"},{"name":"id","type":"uint256","indexed":true,"internalType":"uint256"}],"anonymous":false}],"bytecode":{"object":"0x6080604052348015600f57600080fd5b506112b78061001f6000396000f3fe608060405234801561001057600080fd5b506004361061007c5760003560e01c80634e1273f41161005b5780634e1273f4146100df578063a22cb465146100ff578063e985e9c514610112578063f242432a1461014e57600080fd5b8062fdd58e1461008157806301ffc9a7146100a75780632eb2c2d6146100ca575b600080fd5b61009461008f366004610ae9565b610161565b6040519081526020015b60405180910390f35b6100ba6100b5366004610b2c565b6101fb565b604051901515815260200161009e565b6100dd6100d8366004610bdc565b61024b565b005b6100f26100ed366004610d79565b61050d565b60405161009e9190610e88565b6100dd61010d366004610e9b565b6106f7565b6100ba610120366004610ed7565b6001600160a01b03918216600090815260016020908152604080832093909416825291909152205460ff1690565b6100dd61015c366004610f0a565b610763565b60006001600160a01b0383166101d25760405162461bcd60e51b815260206004820152602b60248201527f455243313135353a2062616c616e636520717565727920666f7220746865207a60448201526a65726f206164647265737360a81b60648201526084015b60405180910390fd5b506000818152602081815260408083206001600160a01b03861684529091529020545b92915050565b60006001600160e01b03198216636cdb3d1360e11b148061022c57506001600160e01b03198216630271189760e51b145b806101f557506301ffc9a760e01b6001600160e01b03198316146101f5565b8483146102b15760405162461bcd60e51b815260206004820152602e60248201527f455243313135353a2049447320616e642076616c756573206d7573742068617660448201526d652073616d65206c656e6774687360901b60648201526084016101c9565b6001600160a01b0387166102d75760405162461bcd60e51b81526004016101c990610f81565b6001600160a01b03881633148061031557506001600160a01b03881660009081526001602081815260408084203385529091529091205460ff161515145b6103315760405162461bcd60e51b81526004016101c990610fc9565b60005b8581101561040357600087878381811061035057610350611026565b905060200201359050600086868481811061036d5761036d611026565b9050602002013590508060008084815260200190815260200160002060008d6001600160a01b03166001600160a01b0316815260200190815260200160002060008282546103bb9190611052565b90915550506000828152602081815260408083206001600160a01b038e168452909152812080548392906103f0908490611065565b9091555050600190920191506103349050565b50866001600160a01b0316886001600160a01b0316336001600160a01b03167f4a39dc06d4c0dbc64b70af90fd698a233a518aa5d07e595d983b8c0526c8f7fb8989898960405161045794939291906110aa565b60405180910390a461050333898989898080602002602001604051908101604052809392919081815260200183836020028082843760009201919091525050604080516020808d0282810182019093528c82529093508c92508b91829185019084908082843760009201919091525050604080516020601f8c018190048102820181019092528a815292508a91508990819084018382808284376000920191909152506108e492505050565b5050505050505050565b606081518351146105775760405162461bcd60e51b815260206004820152602e60248201527f455243313135353a206f776e65727320616e6420494473206d7573742068617660448201526d652073616d65206c656e6774687360901b60648201526084016101c9565b600083516001600160401b0381111561059257610592610ca0565b6040519080825280602002602001820160405280156105bb578160200160208202803683370190505b50905060005b84518110156106ef5760006001600160a01b03168582815181106105e7576105e7611026565b60200260200101516001600160a01b0316036106625760405162461bcd60e51b815260206004820152603460248201527f455243313135353a20736f6d65206164647265737320696e2062617463682062604482015273616c616e6365207175657279206973207a65726f60601b60648201526084016101c9565b60008085838151811061067757610677611026565b6020026020010151815260200190815260200160002060008683815181106106a1576106a1611026565b60200260200101516001600160a01b03166001600160a01b03168152602001908152602001600020548282815181106106dc576106dc611026565b60209081029190910101526001016105c1565b509392505050565b3360008181526001602090815260408083206001600160a01b03871680855290835292819020805460ff191686151590811790915590519081529192917f17307eab39ab6107e8899845ad3d59bd9653f200f220920489ca2b5937696c31910160405180910390a35050565b6001600160a01b0385166107895760405162461bcd60e51b81526004016101c990610f81565b6001600160a01b0386163314806107c757506001600160a01b03861660009081526001602081815260408084203385529091529091205460ff161515145b6107e35760405162461bcd60e51b81526004016101c990610fc9565b6000848152602081815260408083206001600160a01b038a16845290915281208054859290610813908490611052565b90915550506000848152602081815260408083206001600160a01b038916845290915281208054859290610848908490611065565b909155505060408051858152602081018590526001600160a01b03808816929089169133917fc3d58168c5ae7397731d063d5bbf3d657854427343f4c083240f7aacaa2d0f62910160405180910390a46108dc338787878787878080601f016020809104026020016040519081016040528093929190818152602001838380828437600092019190915250610a8992505050565b505050505050565b6001600160a01b0384163b156108dc5760405163bc197c8160e01b81526001600160a01b0385169063bc197c81906109289089908990889088908890600401611122565b6020604051808303816000875af1925050508015610963575060408051601f3d908101601f1916820190925261096091810190611180565b60015b610a0f5761096f61119d565b806308c379a0036109a857506109836111b9565b8061098e57506109aa565b8060405162461bcd60e51b81526004016101c99190611234565b505b60405162461bcd60e51b815260206004820152603460248201527f455243313135353a207472616e7366657220746f206e6f6e2d455243313135356044820152732932b1b2b4bb32b91034b6b83632b6b2b73a32b960611b60648201526084016101c9565b6001600160e01b03198116630271189760e51b14610a805760405162461bcd60e51b815260206004820152602860248201527f455243313135353a204552433131353552656365697665722072656a656374656044820152676420746f6b656e7360c01b60648201526084016101c9565b50505050505050565b6001600160a01b0384163b156108dc5760405163f23a6e6160e01b81526001600160a01b0385169063f23a6e61906109289089908990889088908890600401611247565b80356001600160a01b0381168114610ae457600080fd5b919050565b60008060408385031215610afc57600080fd5b610b0583610acd565b946020939093013593505050565b6001600160e01b031981168114610b2957600080fd5b50565b600060208284031215610b3e57600080fd5b8135610b4981610b13565b9392505050565b60008083601f840112610b6257600080fd5b5081356001600160401b03811115610b7957600080fd5b6020830191508360208260051b8501011115610b9457600080fd5b9250929050565b60008083601f840112610bad57600080fd5b5081356001600160401b03811115610bc457600080fd5b602083019150836020828501011115610b9457600080fd5b60008060008060008060008060a0898b031215610bf857600080fd5b610c0189610acd565b9750610c0f60208a01610acd565b965060408901356001600160401b03811115610c2a57600080fd5b610c368b828c01610b50565b90975095505060608901356001600160401b03811115610c5557600080fd5b610c618b828c01610b50565b90955093505060808901356001600160401b03811115610c8057600080fd5b610c8c8b828c01610b9b565b999c989b5096995094979396929594505050565b634e487b7160e01b600052604160045260246000fd5b601f8201601f191681016001600160401b0381118282101715610cdb57610cdb610ca0565b6040525050565b60006001600160401b03821115610cfb57610cfb610ca0565b5060051b60200190565b600082601f830112610d1657600080fd5b8135610d2181610ce2565b604051610d2e8282610cb6565b80915082815260208101915060208360051b860101925085831115610d5257600080fd5b602085015b83811015610d6f578035835260209283019201610d57565b5095945050505050565b60008060408385031215610d8c57600080fd5b82356001600160401b03811115610da257600080fd5b8301601f81018513610db357600080fd5b8035610dbe81610ce2565b604051610dcb8282610cb6565b80915082815260208101915060208360051b850101925087831115610def57600080fd5b6020840193505b82841015610e1857610e0784610acd565b825260209384019390910190610df6565b945050505060208301356001600160401b03811115610e3657600080fd5b610e4285828601610d05565b9150509250929050565b600081518084526020840193506020830160005b82811015610e7e578151865260209586019590910190600101610e60565b5093949350505050565b602081526000610b496020830184610e4c565b60008060408385031215610eae57600080fd5b610eb783610acd565b915060208301358015158114610ecc57600080fd5b809150509250929050565b60008060408385031215610eea57600080fd5b610ef383610acd565b9150610f0160208401610acd565b90509250929050565b60008060008060008060a08789031215610f2357600080fd5b610f2c87610acd565b9550610f3a60208801610acd565b9450604087013593506060870135925060808701356001600160401b03811115610f6357600080fd5b610f6f89828a01610b9b565b979a9699509497509295939492505050565b60208082526028908201527f455243313135353a207461726765742061646472657373206d757374206265206040820152676e6f6e2d7a65726f60c01b606082015260800190565b60208082526038908201527f455243313135353a206e656564206f70657261746f7220617070726f76616c2060408201527f666f7220337264207061727479207472616e73666572732e0000000000000000606082015260800190565b634e487b7160e01b600052603260045260246000fd5b634e487b7160e01b600052601160045260246000fd5b818103818111156101f5576101f561103c565b808201808211156101f5576101f561103c565b81835260006001600160fb1b0383111561109157600080fd5b8260051b80836020870137939093016020019392505050565b6040815260006110be604083018688611078565b82810360208401526110d1818587611078565b979650505050505050565b6000815180845260005b81811015611102576020818501810151868301820152016110e6565b506000602082860101526020601f19601f83011685010191505092915050565b6001600160a01b0386811682528516602082015260a06040820181905260009061114e90830186610e4c565b82810360608401526111608186610e4c565b9050828103608084015261117481856110dc565b98975050505050505050565b60006020828403121561119257600080fd5b8151610b4981610b13565b600060033d11156111b65760046000803e5060005160e01c5b90565b600060443d10156111c75790565b6040513d600319016004823e80513d60248201116001600160401b03821117156111f057505090565b80820180516001600160401b0381111561120b575050505090565b3d8401600319018282016020011115611225575050505090565b6106ef60208285010185610cb6565b602081526000610b4960208301846110dc565b6001600160a01b03868116825285166020820152604081018490526060810183905260a0608082018190526000906110d1908301846110dc56fea26469706673582212206a583c7d325af983df9e6432ea2f6e7fcd21d0c35964d50b78b9de5552653afa64736f6c634300081c0033","linkReferences":{}},"methodIdentifiers":{"balanceOf(address,uint256)":"00fdd58e","balanceOfBatch(address[],uint256[])":"4e1273f4","isApprovedForAll(address,address)":"e985e9c5","safeBatchTransferFrom(address,address,uint256[],uint256[],bytes)":"2eb2c2d6","safeTransferFrom(address,address,uint256,uint256,bytes)":"f242432a","setApprovalForAll(address,bool)":"a22cb465","supportsInterface(bytes4)":"01ffc9a7"},"id":28}