{"abi":[{"type":"constructor","inputs":[],"stateMutability":"nonpayable"},{"type":"fallback","stateMutability":"payable"},{"type":"function","name":"NAME","inputs":[],"outputs":[{"name":"","type":"string","internalType":"string"}],"stateMutability":"view"},{"type":"function","name":"VERSION","inputs":[],"outputs":[{"name":"","type":"string","internalType":"string"}],"stateMutability":"view"},{"type":"function","name":"addOwnerWithThreshold","inputs":[{"name":"owner","type":"address","internalType":"address"},{"name":"_threshold","type":"uint256","internalType":"uint256"}],"outputs":[],"stateMutability":"nonpayable"},{"type":"function","name":"approveHash","inputs":[{"name":"hashToApprove","type":"bytes32","internalType":"bytes32"}],"outputs":[],"stateMutability":"nonpayable"},{"type":"function","name":"approvedHashes","inputs":[{"name":"","type":"address","internalType":"address"},{"name":"","type":"bytes32","internalType":"bytes32"}],"outputs":[{"name":"","type":"uint256","internalType":"uint256"}],"stateMutability":"view"},{"type":"function","name":"changeMasterCopy","inputs":[{"name":"_masterCopy","type":"address","internalType":"address"}],"outputs":[],"stateMutability":"nonpayable"},{"type":"function","name":"changeThreshold","inputs":[{"name":"_threshold","type":"uint256","internalType":"uint256"}],"outputs":[],"stateMutability":"nonpayable"},{"type":"function","name":"disableModule","inputs":[{"name":"prevModule","type":"address","internalType":"contract Module"},{"name":"module","type":"address","internalType":"contract Module"}],"outputs":[],"stateMutability":"nonpayable"},{"type":"function","name":"domainSeparator","inputs":[],"outputs":[{"name":"","type":"bytes32","internalType":"bytes32"}],"stateMutability":"view"},{"type":"function","name":"enableModule","inputs":[{"name":"module","type":"address","internalType":"contract Module"}],"outputs":[],"stateMutability":"nonpayable"},{"type":"function","name":"encodeTransactionData","inputs":[{"name":"to","type":"address","internalType":"address"},{"name":"value","type":"uint256","internalType":"uint256"},{"name":"data","type":"bytes","internalType":"bytes"},{"name":"operation","type":"uint8","internalType":"enum Enum.Operation"},{"name":"safeTxGas","type":"uint256","internalType":"uint256"},{"name":"baseGas","type":"uint256","internalType":"uint256"},{"name":"gasPrice","type":"uint256","internalType":"uint256"},{"name":"gasToken","type":"address","internalType":"address"},{"name":"refundReceiver","type":"address","internalType":"address"},{"name":"_nonce","type":"uint256","internalType":"uint256"}],"outputs":[{"name":"","type":"bytes","internalType":"bytes"}],"stateMutability":"view"},{"type":"function","name":"execTransaction","inputs":[{"name":"to","type":"address","internalType":"address"},{"name":"value","type":"uint256","internalType":"uint256"},{"name":"data","type":"bytes","internalType":"bytes"},{"name":"operation","type":"uint8","internalType":"enum Enum.Operation"},{"name":"safeTxGas","type":"uint256","internalType":"uint256"},{"name":"baseGas","type":"uint256","internalType":"uint256"},{"name":"gasPrice","type":"uint256","internalType":"uint256"},{"name":"gasToken","type":"address","internalType":"address"},{"name":"refundReceiver","type":"address","internalType":"address payable"},{"name":"signatures","type":"bytes","internalType":"bytes"}],"outputs":[{"name":"success","type":"bool","internalType":"bool"}],"stateMutability":"nonpayable"},{"type":"function","name":"execTransactionFromModule","inputs":[{"name":"to","type":"address","internalType":"address"},{"name":"value","type":"uint256","internalType":"uint256"},{"name":"data","type":"bytes","internalType":"bytes"},{"name":"operation","type":"uint8","internalType":"enum Enum.Operation"}],"outputs":[{"name":"success","type":"bool","internalType":"bool"}],"stateMutability":"nonpayable"},{"type":"function","name":"execTransactionFromModuleReturnData","inputs":[{"name":"to","type":"address","internalType":"address"},{"name":"value","type":"uint256","internalType":"uint256"},{"name":"data","type":"bytes","internalType":"bytes"},{"name":"operation","type":"uint8","internalType":"enum Enum.Operation"}],"outputs":[{"name":"success","type":"bool","internalType":"bool"},{"name":"returnData","type":"bytes","internalType":"bytes"}],"stateMutability":"nonpayable"},{"type":"function","name":"getMessageHash","inputs":[{"name":"message","type":"bytes","internalType":"bytes"}],"outputs":[{"name":"","type":"bytes32","internalType":"bytes32"}],"stateMutability":"view"},{"type":"function","name":"getModules","inputs":[],"outputs":[{"name":"","type":"address[]","internalType":"address[]"}],"stateMutability":"view"},{"type":"function","name":"getModulesPaginated","inputs":[{"name":"start","type":"address","internalType":"address"},{"name":"pageSize","type":"uint256","internalType":"uint256"}],"outputs":[{"name":"array","type":"address[]","internalType":"address[]"},{"name":"next","type":"address","internalType":"address"}],"stateMutability":"view"},{"type":"function","name":"getOwners","inputs":[],"outputs":[{"name":"","type":"address[]","internalType":"address[]"}],"stateMutability":"view"},{"type":"function","name":"getThreshold","inputs":[],"outputs":[{"name":"","type":"uint256","internalType":"uint256"}],"stateMutability":"view"},{"type":"function","name":"getTransactionHash","inputs":[{"name":"to","type":"address","internalType":"address"},{"name":"value","type":"uint256","internalType":"uint256"},{"name":"data","type":"bytes","internalType":"bytes"},{"name":"operation","type":"uint8","internalType":"enum Enum.Operation"},{"name":"safeTxGas","type":"uint256","internalType":"uint256"},{"name":"baseGas","type":"uint256","internalType":"uint256"},{"name":"gasPrice","type":"uint256","internalType":"uint256"},{"name":"gasToken","type":"address","internalType":"address"},{"name":"refundReceiver","type":"address","internalType":"address"},{"name":"_nonce","type":"uint256","internalType":"uint256"}],"outputs":[{"name":"","type":"bytes32","internalType":"bytes32"}],"stateMutability":"view"},{"type":"function","name":"isOwner","inputs":[{"name":"owner","type":"address","internalType":"address"}],"outputs":[{"name":"","type":"bool","internalType":"bool"}],"stateMutability":"view"},{"type":"function","name":"isValidSignature","inputs":[{"name":"_data","type":"bytes","internalType":"bytes"},{"name":"_signature","type":"bytes","internalType":"bytes"}],"outputs":[{"name":"","type":"bytes4","internalType":"bytes4"}],"stateMutability":"nonpayable"},{"type":"function","name":"nonce","inputs":[],"outputs":[{"name":"","type":"uint256","internalType":"uint256"}],"stateMutability":"view"},{"type":"function","name":"removeOwner","inputs":[{"name":"prevOwner","type":"address","internalType":"address"},{"name":"owner","type":"address","internalType":"address"},{"name":"_threshold","type":"uint256","internalType":"uint256"}],"outputs":[],"stateMutability":"nonpayable"},{"type":"function","name":"requiredTxGas","inputs":[{"name":"to","type":"address","internalType":"address"},{"name":"value","type":"uint256","internalType":"uint256"},{"name":"data","type":"bytes","internalType":"bytes"},{"name":"operation","type":"uint8","internalType":"enum Enum.Operation"}],"outputs":[{"name":"","type":"uint256","internalType":"uint256"}],"stateMutability":"nonpayable"},{"type":"function","name":"setFallbackHandler","inputs":[{"name":"handler","type":"address","internalType":"address"}],"outputs":[],"stateMutability":"nonpayable"},{"type":"function","name":"setup","inputs":[{"name":"_owners","type":"address[]","internalType":"address[]"},{"name":"_threshold","type":"uint256","internalType":"uint256"},{"name":"to","type":"address","internalType":"address"},{"name":"data","type":"bytes","internalType":"bytes"},{"name":"fallbackHandler","type":"address","internalType":"address"},{"name":"paymentToken","type":"address","internalType":"address"},{"name":"payment","type":"uint256","internalType":"uint256"},{"name":"paymentReceiver","type":"address","internalType":"address payable"}],"outputs":[],"stateMutability":"nonpayable"},{"type":"function","name":"signMessage","inputs":[{"name":"_data","type":"bytes","internalType":"bytes"}],"outputs":[],"stateMutability":"nonpayable"},{"type":"function","name":"signedMessages","inputs":[{"name":"","type":"bytes32","internalType":"bytes32"}],"outputs":[{"name":"","type":"uint256","internalType":"uint256"}],"stateMutability":"view"},{"type":"function","name":"swapOwner","inputs":[{"name":"prevOwner","type":"address","internalType":"address"},{"name":"oldOwner","type":"address","internalType":"address"},{"name":"newOwner","type":"address","internalType":"address"}],"outputs":[],"stateMutability":"nonpayable"},{"type":"event","name":"AddedOwner","inputs":[{"name":"owner","type":"address","indexed":false,"internalType":"address"}],"anonymous":false},{"type":"event","name":"ApproveHash","inputs":[{"name":"approvedHash","type":"bytes32","indexed":true,"internalType":"bytes32"},{"name":"owner","type":"address","indexed":true,"internalType":"address"}],"anonymous":false},{"type":"event","name":"ChangedMasterCopy","inputs":[{"name":"masterCopy","type":"address","indexed":false,"internalType":"address"}],"anonymous":false},{"type":"event","name":"ChangedThreshold","inputs":[{"name":"threshold","type":"uint256","indexed":false,"internalType":"uint256"}],"anonymous":false},{"type":"event","name":"DisabledModule","inputs":[{"name":"module","type":"address","indexed":false,"internalType":"contract Module"}],"anonymous":false},{"type":"event","name":"EnabledModule","inputs":[{"name":"module","type":"address","indexed":false,"internalType":"contract Module"}],"anonymous":false},{"type":"event","name":"ExecutionFailure","inputs":[{"name":"txHash","type":"bytes32","indexed":false,"internalType":"bytes32"},{"name":"payment","type":"uint256","indexed":false,"internalType":"uint256"}],"anonymous":false},{"type":"event","name":"ExecutionFromModuleFailure","inputs":[{"name":"module","type":"address","indexed":true,"internalType":"address"}],"anonymous":false},{"type":"event","name":"ExecutionFromModuleSuccess","inputs":[{"name":"module","type":"address","indexed":true,"internalType":"address"}],"anonymous":false},{"type":"event","name":"ExecutionSuccess","inputs":[{"name":"txHash","type":"bytes32","indexed":false,"internalType":"bytes32"},{"name":"payment","type":"uint256","indexed":false,"internalType":"uint256"}],"anonymous":false},{"type":"event","name":"RemovedOwner","inputs":[{"name":"owner","type":"address","indexed":false,"internalType":"address"}],"anonymous":false},{"type":"event","name":"SignMsg","inputs":[{"name":"msgHash","type":"bytes32","indexed":true,"internalType":"bytes32"}],"anonymous":false}],"bytecode":{"object":"0x608060405234801561001057600080fd5b506001600455613766806100256000396000f3fe6080604052600436106101cd5760003560e01c8063affed0e0116100f7578063e009cfde11610095578063f08a032311610064578063f08a032314610f0a578063f698da2514610f3d578063f8dc5dd914610f52578063ffa1ad7414610f95576101cd565b8063e009cfde14610d7b578063e318b52b14610db6578063e75235b814610dfb578063e86637db14610e10576101cd565b8063c4ca3a9c116100d1578063c4ca3a9c14610b1e578063cc2f845214610bb1578063d4d9bdcd14610c57578063d8d11f7814610c81576101cd565b8063affed0e0146109f4578063b2494df314610a09578063b63e800d14610a1e576101cd565b8063610b59251161016f5780637de7edef1161013e5780637de7edef1461085757806385a5affe1461088a578063a0e67e2b14610905578063a3f4df7e1461096a576101cd565b8063610b5925146106ac578063694e80c3146106df5780636a761202146107095780637d8329741461081e576101cd565b80632f54bf6e116101ab5780632f54bf6e14610422578063468721a7146104695780635229073f146105345780635ae6bd3714610682576101cd565b80630a1028c41461023e5780630d582f131461030157806320c13b0b1461033a575b60003411806101da575036155b156101e45761023c565b7f6c9a6c4a39284e37ed1cf53d337577d14212a4870fb976a4366c693b939918d580546001600160a01b0381161561023957366000803760008036600080855af13d6000803e80610234573d6000fd5b3d6000f35b50505b005b34801561024a57600080fd5b506102ef6004803603602081101561026157600080fd5b810190602081018135600160201b81111561027b57600080fd5b82018360208201111561028d57600080fd5b803590602001918460018302840111600160201b831117156102ae57600080fd5b91908080601f016020809104026020016040519081016040528093929190818152602001838380828437600092019190915250929550610faa945050505050565b60408051918252519081900360200190f35b34801561030d57600080fd5b5061023c6004803603604081101561032457600080fd5b506001600160a01b038135169060200135611035565b34801561034657600080fd5b506104056004803603604081101561035d57600080fd5b810190602081018135600160201b81111561037757600080fd5b82018360208201111561038957600080fd5b803590602001918460018302840111600160201b831117156103aa57600080fd5b919390929091602081019035600160201b8111156103c757600080fd5b8201836020820111156103d957600080fd5b803590602001918460018302840111600160201b831117156103fa57600080fd5b5090925090506111f6565b604080516001600160e01b03199092168252519081900360200190f35b34801561042e57600080fd5b506104556004803603602081101561044557600080fd5b50356001600160a01b0316611320565b604080519115158252519081900360200190f35b34801561047557600080fd5b506104556004803603608081101561048c57600080fd5b6001600160a01b0382351691602081013591810190606081016040820135600160201b8111156104bb57600080fd5b8201836020820111156104cd57600080fd5b803590602001918460018302840111600160201b831117156104ee57600080fd5b91908080601f0160208091040260200160405190810160405280939291908181526020018383808284376000920191909152509295505050903560ff16915061135b9050565b34801561054057600080fd5b506105ff6004803603608081101561055757600080fd5b6001600160a01b0382351691602081013591810190606081016040820135600160201b81111561058657600080fd5b82018360208201111561059857600080fd5b803590602001918460018302840111600160201b831117156105b957600080fd5b91908080601f0160208091040260200160405190810160405280939291908181526020018383808284376000920191909152509295505050903560ff1691506114389050565b604051808315151515815260200180602001828103825283818151815260200191508051906020019080838360005b8381101561064657818101518382015260200161062e565b50505050905090810190601f1680156106735780820380516001836020036101000a031916815260200191505b50935050505060405180910390f35b34801561068e57600080fd5b506102ef600480360360208110156106a557600080fd5b503561146e565b3480156106b857600080fd5b5061023c600480360360208110156106cf57600080fd5b50356001600160a01b0316611480565b3480156106eb57600080fd5b5061023c6004803603602081101561070257600080fd5b5035611632565b34801561071557600080fd5b50610455600480360361014081101561072d57600080fd5b6001600160a01b0382351691602081013591810190606081016040820135600160201b81111561075c57600080fd5b82018360208201111561076e57600080fd5b803590602001918460018302840111600160201b8311171561078f57600080fd5b9193909260ff833516926020810135926040820135926060830135926001600160a01b03608082013581169360a083013590911692909160e081019060c00135600160201b8111156107e057600080fd5b8201836020820111156107f257600080fd5b803590602001918460018302840111600160201b8311171561081357600080fd5b50909250905061172c565b34801561082a57600080fd5b506102ef6004803603604081101561084157600080fd5b506001600160a01b03813516906020013561195c565b34801561086357600080fd5b5061023c6004803603602081101561087a57600080fd5b50356001600160a01b0316611979565b34801561089657600080fd5b5061023c600480360360208110156108ad57600080fd5b810190602081018135600160201b8111156108c757600080fd5b8201836020820111156108d957600080fd5b803590602001918460018302840111600160201b831117156108fa57600080fd5b509092509050611a50565b34801561091157600080fd5b5061091a611b11565b60408051602080825283518183015283519192839290830191858101910280838360005b8381101561095657818101518382015260200161093e565b505050509050019250505060405180910390f35b34801561097657600080fd5b5061097f611bdd565b6040805160208082528351818301528351919283929083019185019080838360005b838110156109b95781810151838201526020016109a1565b50505050905090810190601f1680156109e65780820380516001836020036101000a031916815260200191505b509250505060405180910390f35b348015610a0057600080fd5b506102ef611c04565b348015610a1557600080fd5b5061091a611c0a565b348015610a2a57600080fd5b5061023c6004803603610100811015610a4257600080fd5b810190602081018135600160201b811115610a5c57600080fd5b820183602082011115610a6e57600080fd5b803590602001918460208302840111600160201b83111715610a8f57600080fd5b919390928235926001600160a01b03602082013516929190606081019060400135600160201b811115610ac157600080fd5b820183602082011115610ad357600080fd5b803590602001918460018302840111600160201b83111715610af457600080fd5b91935091506001600160a01b03813581169160208101358216916040820135916060013516611c20565b348015610b2a57600080fd5b506102ef60048036036080811015610b4157600080fd5b6001600160a01b0382351691602081013591810190606081016040820135600160201b811115610b7057600080fd5b820183602082011115610b8257600080fd5b803590602001918460018302840111600160201b83111715610ba357600080fd5b91935091503560ff16611d7a565b348015610bbd57600080fd5b50610bea60048036036040811015610bd457600080fd5b506001600160a01b038135169060200135611eb6565b6040518080602001836001600160a01b03166001600160a01b03168152602001828103825284818151815260200191508051906020019060200280838360005b83811015610c42578181015183820152602001610c2a565b50505050905001935050505060405180910390f35b348015610c6357600080fd5b5061023c60048036036020811015610c7a57600080fd5b5035611f8a565b348015610c8d57600080fd5b506102ef6004803603610140811015610ca557600080fd5b6001600160a01b0382351691602081013591810190606081016040820135600160201b811115610cd457600080fd5b820183602082011115610ce657600080fd5b803590602001918460018302840111600160201b83111715610d0757600080fd5b91908080601f0160208091040260200160405190810160405280939291908181526020018383808284376000920191909152509295505060ff833516935050506020810135906040810135906060810135906001600160a01b03608082013581169160a08101359091169060c0013561203c565b348015610d8757600080fd5b5061023c60048036036040811015610d9e57600080fd5b506001600160a01b0381358116916020013516612067565b348015610dc257600080fd5b5061023c60048036036060811015610dd957600080fd5b506001600160a01b0381358116916020810135821691604090910135166121f1565b348015610e0757600080fd5b506102ef612485565b348015610e1c57600080fd5b5061097f6004803603610140811015610e3457600080fd5b6001600160a01b0382351691602081013591810190606081016040820135600160201b811115610e6357600080fd5b820183602082011115610e7557600080fd5b803590602001918460018302840111600160201b83111715610e9657600080fd5b91908080601f0160208091040260200160405190810160405280939291908181526020018383808284376000920191909152509295505060ff833516935050506020810135906040810135906060810135906001600160a01b03608082013581169160a08101359091169060c0013561248b565b348015610f1657600080fd5b5061023c60048036036020811015610f2d57600080fd5b50356001600160a01b03166125aa565b348015610f4957600080fd5b506102ef6125f4565b348015610f5e57600080fd5b5061023c60048036036060811015610f7557600080fd5b506001600160a01b038135811691602081013590911690604001356125fa565b348015610fa157600080fd5b5061097f6127d3565b8051602091820120604080517f60b3cbf8b4a223d68d641b3b6ddf9a298e7f33710cf3d3a9d1146b5a6150fbca8185015280820192909252805180830382018152606083018252805190840120600654601960f81b6080850152600160f81b6081850152608284015260a2808401919091528151808403909101815260c29092019052805191012090565b3330146110735760405162461bcd60e51b815260040180806020018281038252602c815260200180613653602c913960400191505060405180910390fd5b6001600160a01b0382161580159061109557506001600160a01b038216600114155b6110d4576040805162461bcd60e51b815260206004820152601e6024820152600080516020613492833981519152604482015290519081900360640190fd5b6001600160a01b038281166000908152600260205260409020541615611141576040805162461bcd60e51b815260206004820152601b60248201527f4164647265737320697320616c726561647920616e206f776e65720000000000604482015290519081900360640190fd5b600260209081527fe90b7bceb6e7df5418fb78d8ee546e97c83a08bbccc01a0644d599ccd2a7c2e080546001600160a01b03858116600081815260408082208054949095166001600160a01b031994851617909455600190819052845490921681179093556003805490910190558051918252517f9465fa0c962cc76958e6373a993326400c1c94f8be2fe3a952adfa7f60b2ea26929181900390910190a180600454146111f2576111f281611632565b5050565b60008061123886868080601f016020809104026020016040519081016040528093929190818152602001838380828437600092019190915250610faa92505050565b90508261129857600081815260076020526040902054611293576040805162461bcd60e51b815260206004820152601160248201527012185cda081b9bdd08185c1c1c9bdd9959607a1b604482015290519081900360640190fd5b61130c565b61130c8187878080601f01602080910402602001604051908101604052809392919081815260200183838082843760009201919091525050604080516020601f8b018190048102820181019092528981529250899150889081908401838280828437600092018290525092506127f4915050565b506320c13b0b60e01b90505b949350505050565b60006001600160a01b03821660011480159061135557506001600160a01b038281166000908152600260205260409020541615155b92915050565b6000336001148015906113855750336000908152600160205260409020546001600160a01b031615155b6113c05760405162461bcd60e51b815260040180806020018281038252603081526020018061367f6030913960400191505060405180910390fd5b6113cd858585855a612e3a565b905080156114055760405133907f6895c13664aa4f67288b25d7a21d7aaa34916e355fb9b6fae0a139a9085becb890600090a2611318565b60405133907facd2c8702804128fdb0db2bb49f6d127dd0181c13fd45dbfe16de0930e2bd37590600090a2949350505050565b600060606114488686868661135b565b915060405160203d0181016040523d81523d6000602083013e8091505094509492505050565b60076020526000908152604090205481565b3330146114be5760405162461bcd60e51b815260040180806020018281038252602c815260200180613653602c913960400191505060405180910390fd5b6001600160a01b038116158015906114e057506001600160a01b038116600114155b611531576040805162461bcd60e51b815260206004820152601f60248201527f496e76616c6964206d6f64756c6520616464726573732070726f766964656400604482015290519081900360640190fd5b6001600160a01b03818116600090815260016020526040902054161561159e576040805162461bcd60e51b815260206004820152601d60248201527f4d6f64756c652068617320616c7265616479206265656e206164646564000000604482015290519081900360640190fd5b600160208181527fcc69885fda6bcc1a4ace058b4a62bf5e179ea78fd58a1ccd71c22cc9b688792f80546001600160a01b03858116600081815260408082208054949095166001600160a01b0319948516179094559590955282541684179091558051928352517fecdf3a3effea5783a3c4c2140e677577666428d44ed9d474a0b3a4c9943f84409281900390910190a150565b3330146116705760405162461bcd60e51b815260040180806020018281038252602c815260200180613653602c913960400191505060405180910390fd5b6003548111156116b15760405162461bcd60e51b81526004018080602001828103825260238152602001806135226023913960400191505060405180910390fd5b60018110156116f15760405162461bcd60e51b81526004018080602001828103825260248152602001806135f86024913960400191505060405180910390fd5b60048190556040805182815290517f610f7ff2b304ae8903c3de74c60c6ab1f7d6226b3f52c5161905bb5ad4039c939181900360200190a150565b60008060606117898f8f8f8f8080601f016020809104026020016040519081016040528093929190818152602001838380828437600081840152601f19601f820116905080830192505050505050508e8e8e8e8e8e60055461248b565b9050600560008154809291906001019190505550808051906020012091506117eb828287878080601f016020809104026020016040519081016040528093929190818152602001838380828437600092019190915250600192506127f4915050565b50885a101561182b5760405162461bcd60e51b815260040180806020018281038252602a815260200180613708602a913960400191505060405180910390fd5b60005a905061189a8f8f8f8f8080601f016020809104026020016040519081016040528093929190818152602001838380828437600081840152601f19601f820116905080830192505050505050508e8e600014801561188957508c155b611893578e611895565b5a5b612e3a565b92506118ad5a829063ffffffff612e8e16565b9050600088156118c7576118c4828b8b8b8b612ea3565b90505b831561190d57604080518481526020810183905281517f442e715f626346e8c54381002da614f62bee8d27386535b2521ec8540898556e929181900390910190a1611949565b604080518481526020810183905281517f23428b18acfb3ea64b08dc0c1d296ea9c09702c09083ca5272e64d115b687d23929181900390910190a15b5050509c9b505050505050505050505050565b600860209081526000928352604080842090915290825290205481565b3330146119b75760405162461bcd60e51b815260040180806020018281038252602c815260200180613653602c913960400191505060405180910390fd5b6001600160a01b0381166119fc5760405162461bcd60e51b815260040180806020018281038252602481526020018061346e6024913960400191505060405180910390fd5b600080546001600160a01b0383166001600160a01b0319909116811790915560408051918252517f75e41bc35ff1bf14d81d1d2f649c0084a0f974f9289c803ec9898eeec4c8d0b89181900360200190a150565b333014611a8e5760405162461bcd60e51b815260040180806020018281038252602c815260200180613653602c913960400191505060405180910390fd5b6000611acf83838080601f016020809104026020016040519081016040528093929190818152602001838380828437600092019190915250610faa92505050565b600081815260076020526040808220600190555191925082917fe7f4675038f4f6034dfcbbb24c4dc08e4ebf10eb9d257d3d02c0f38d122ac6e49190a2505050565b606080600354604051908082528060200260200182016040528015611b40578160200160208202803883390190505b506001600090815260026020527fe90b7bceb6e7df5418fb78d8ee546e97c83a08bbccc01a0644d599ccd2a7c2e054919250906001600160a01b03165b6001600160a01b038116600114611bd55780838381518110611b9b57fe5b6001600160a01b03928316602091820292909201810191909152918116600090815260029092526040909120546001929092019116611b7d565b509091505090565b6040518060400160405280600b81526020016a476e6f736973205361666560a81b81525081565b60055481565b606080611c196001600a611eb6565b5091505090565b60065415611c75576040805162461bcd60e51b815260206004820152601d60248201527f446f6d61696e20536570617261746f7220616c72656164792073657421000000604482015290519081900360640190fd5b604080517f035aff83d86937d35b32e04f0ddc6ff469290eef2f1b692d8a815c89404d47496020808301919091523082840152825180830384018152606083018085528151918301919091206006556080918d0280840183019094528c8152611cff9390928e928e92839291909101908490808284376000920191909152508c9250612fc9915050565b6001600160a01b03841615611d1757611d1784613207565b611d578787878080601f01602080910402602001604051908101604052809392919081815260200183838082843760009201919091525061322b92505050565b8115611d6e57611d6c82600060018685612ea3565b505b50505050505050505050565b6000333014611dba5760405162461bcd60e51b815260040180806020018281038252602c815260200180613653602c913960400191505060405180910390fd5b60005a9050611e02878787878080601f01602080910402602001604051908101604052809392919081815260200183838082843760009201919091525089925050505a612e3a565b611e0b57600080fd5b60005a82039050806040516020018082815260200191505060405160208183030381529060405260405162461bcd60e51b81526004018080602001828103825283818151815260200191508051906020019080838360005b83811015611e7b578181015183820152602001611e63565b50505050905090810190601f168015611ea85780820380516001836020036101000a031916815260200191505b509250505060405180910390fd5b6060600082604051908082528060200260200182016040528015611ee4578160200160208202803883390190505b506001600160a01b0380861660009081526001602052604081205492945091165b6001600160a01b03811615801590611f2757506001600160a01b038116600114155b8015611f3257508482105b15611f7c5780848381518110611f4457fe5b6001600160a01b0392831660209182029290920181019190915291811660009081526001928390526040902054929091019116611f05565b908352919491935090915050565b336000908152600260205260409020546001600160a01b0316611ff4576040805162461bcd60e51b815260206004820152601e60248201527f4f6e6c79206f776e6572732063616e20617070726f7665206120686173680000604482015290519081900360640190fd5b336000818152600860209081526040808320858452909152808220600190555183917ff2a0eb156472d1440255b0d7c1e19cc07115d1051fe605b0dce69acfec884d9c91a350565b60006120508b8b8b8b8b8b8b8b8b8b61248b565b8051906020012090509a9950505050505050505050565b3330146120a55760405162461bcd60e51b815260040180806020018281038252602c815260200180613653602c913960400191505060405180910390fd5b6001600160a01b038116158015906120c757506001600160a01b038116600114155b612118576040805162461bcd60e51b815260206004820152601f60248201527f496e76616c6964206d6f64756c6520616464726573732070726f766964656400604482015290519081900360640190fd5b6001600160a01b038281166000908152600160205260409020548116908216146121735760405162461bcd60e51b81526004018080602001828103825260288152602001806134fa6028913960400191505060405180910390fd5b6001600160a01b038181166000818152600160209081526040808320805488871685528285208054919097166001600160a01b031991821617909655928490528254909416909155825191825291517faab4fa2b463f581b2b32cb3b7e3b704b9ce37cc209b5fb4d77e593ace4054276929181900390910190a15050565b33301461222f5760405162461bcd60e51b815260040180806020018281038252602c815260200180613653602c913960400191505060405180910390fd5b6001600160a01b0381161580159061225157506001600160a01b038116600114155b612290576040805162461bcd60e51b815260206004820152601e6024820152600080516020613492833981519152604482015290519081900360640190fd5b6001600160a01b0381811660009081526002602052604090205416156122fd576040805162461bcd60e51b815260206004820152601b60248201527f4164647265737320697320616c726561647920616e206f776e65720000000000604482015290519081900360640190fd5b6001600160a01b0382161580159061231f57506001600160a01b038216600114155b61235e576040805162461bcd60e51b815260206004820152601e6024820152600080516020613492833981519152604482015290519081900360640190fd5b6001600160a01b038381166000908152600260205260409020548116908316146123b95760405162461bcd60e51b815260040180806020018281038252602681526020018061359c6026913960400191505060405180910390fd5b6001600160a01b038281166000818152600260209081526040808320805487871680865283862080549289166001600160a01b0319938416179055968a16855282852080548216909717909655928490528254909416909155825191825291517ff8d49fc529812e9a7c5c50e69c20f0dccc0db8fa95c98bc58cc9a4f1c1299eaf929181900390910190a1604080516001600160a01b038316815290517f9465fa0c962cc76958e6373a993326400c1c94f8be2fe3a952adfa7f60b2ea269181900360200190a1505050565b60045490565b606060007fbb8310d486368db6bd6f849402fdd73ad53d316b5a4b2644ad6efe0f941286d860001b8c8c8c805190602001208c8c8c8c8c8c8c604051602001808c81526020018b6001600160a01b03166001600160a01b031681526020018a815260200189815260200188600181111561250157fe5b60ff1681526020808201989098526040808201979097526060810195909552506001600160a01b039283166080850152911660a083015260c0808301919091528251808303909101815260e0820183528051930192909220600654601960f81b610100850152600160f81b6101018501526101028401526101228084019190915281518084039091018152610142909201905296505050505050509a9950505050505050505050565b3330146125e85760405162461bcd60e51b815260040180806020018281038252602c815260200180613653602c913960400191505060405180910390fd5b6125f181613207565b50565b60065481565b3330146126385760405162461bcd60e51b815260040180806020018281038252602c815260200180613653602c913960400191505060405180910390fd5b80600160035403101561267c5760405162461bcd60e51b81526004018080602001828103825260358152602001806135456035913960400191505060405180910390fd5b6001600160a01b0382161580159061269e57506001600160a01b038216600114155b6126dd576040805162461bcd60e51b815260206004820152601e6024820152600080516020613492833981519152604482015290519081900360640190fd5b6001600160a01b038381166000908152600260205260409020548116908316146127385760405162461bcd60e51b815260040180806020018281038252602681526020018061359c6026913960400191505060405180910390fd5b6001600160a01b038281166000818152600260209081526040808320805489871685528285208054919097166001600160a01b03199182161790965592849052825490941690915560038054600019019055825191825291517ff8d49fc529812e9a7c5c50e69c20f0dccc0db8fa95c98bc58cc9a4f1c1299eaf929181900390910190a180600454146127ce576127ce81611632565b505050565b60405180604001604052806005815260200164312e312e3160d81b81525081565b60045480612849576040805162461bcd60e51b815260206004820152601e60248201527f5468726573686f6c64206e6565647320746f20626520646566696e6564210000604482015290519081900360640190fd5b61285a81604163ffffffff61334516565b835110156128af576040805162461bcd60e51b815260206004820152601960248201527f5369676e617475726573206461746120746f6f2073686f727400000000000000604482015290519081900360640190fd5b600080808080805b86811015611d6c576128c98982613373565b9195509350915060ff8416612b845791935083916128ee87604163ffffffff61334516565b82101561292c5760405162461bcd60e51b815260040180806020018281038252603781526020018061361c6037913960400191505060405180910390fd5b885161293f83602063ffffffff61339116565b111561297c5760405162461bcd60e51b81526004018080602001828103825260378152602001806136af6037913960400191505060405180910390fd5b6020828a018101518a5190916129a5908390612999908790613391565b9063ffffffff61339116565b11156129e25760405162461bcd60e51b81526004018080602001828103825260368152602001806135c26036913960400191505060405180910390fd5b60606020848c010190506320c13b0b60e01b6001600160e01b031916876001600160a01b03166320c13b0b8e846040518363ffffffff1660e01b8152600401808060200180602001838103835285818151815260200191508051906020019080838360005b83811015612a5f578181015183820152602001612a47565b50505050905090810190601f168015612a8c5780820380516001836020036101000a031916815260200191505b50838103825284518152845160209182019186019080838360005b83811015612abf578181015183820152602001612aa7565b50505050905090810190601f168015612aec5780820380516001836020036101000a031916815260200191505b5094505050505060206040518083038186803b158015612b0b57600080fd5b505afa158015612b1f573d6000803e3d6000fd5b505050506040513d6020811015612b3557600080fd5b50516001600160e01b03191614612b7d5760405162461bcd60e51b81526004018080602001828103825260238152602001806134d76023913960400191505060405180910390fd5b5050612d93565b8360ff1660011415612c64579193508391336001600160a01b0384161480612bce57506001600160a01b03851660009081526008602090815260408083208e845290915290205415155b612c1f576040805162461bcd60e51b815260206004820152601a60248201527f4861736820686173206e6f74206265656e20617070726f766564000000000000604482015290519081900360640190fd5b878015612c355750336001600160a01b03861614155b15612c5f576001600160a01b03851660009081526008602090815260408083208e84529091528120555b612d93565b601e8460ff161115612d2f5760018b60405160200180807f19457468657265756d205369676e6564204d6573736167653a0a333200000000815250601c018281526020019150506040516020818303038152906040528051906020012060048603858560405160008152602001604052604051808581526020018460ff1660ff1681526020018381526020018281526020019450505050506020604051602081039080840390855afa158015612d1e573d6000803e3d6000fd5b505050602060405103519450612d93565b604080516000815260208082018084528e905260ff8716828401526060820186905260808201859052915160019260a0808401939192601f1981019281900390910190855afa158015612d86573d6000803e3d6000fd5b5050506020604051035194505b856001600160a01b0316856001600160a01b0316118015612dcd57506001600160a01b038581166000908152600260205260409020541615155b8015612de357506001600160a01b038516600114155b612e2d576040805162461bcd60e51b8152602060048201526016602482015275125b9d985b1a59081bdddb995c881c1c9bdd9a59195960521b604482015290519081900360640190fd5b93945084936001016128b7565b600080836001811115612e4957fe5b1415612e6257612e5b868686856133a3565b9050612e85565b6001836001811115612e7057fe5b1415612e8157612e5b8685846133bb565b5060005b95945050505050565b600082821115612e9d57600080fd5b50900390565b6000806001600160a01b03831615612ebb5782612ebd565b325b90506001600160a01b038416612f6357612efb3a8610612edd573a612edf565b855b612eef898963ffffffff61339116565b9063ffffffff61334516565b6040519092506001600160a01b0382169083156108fc029084906000818181858888f19350505050612f5e5760405162461bcd60e51b81526004018080602001828103825260228152602001806136e66022913960400191505060405180910390fd5b612fbf565b612f7785612eef898963ffffffff61339116565b9150612f848482846133d1565b612fbf5760405162461bcd60e51b815260040180806020018281038252602281526020018061357a6022913960400191505060405180910390fd5b5095945050505050565b6004541561301e576040805162461bcd60e51b815260206004820152601e60248201527f4f776e657273206861766520616c7265616479206265656e2073657475700000604482015290519081900360640190fd5b815181111561305e5760405162461bcd60e51b81526004018080602001828103825260238152602001806135226023913960400191505060405180910390fd5b600181101561309e5760405162461bcd60e51b81526004018080602001828103825260248152602001806135f86024913960400191505060405180910390fd5b600160005b83518110156131d45760008482815181106130ba57fe5b6020026020010151905060006001600160a01b0316816001600160a01b0316141580156130f157506001600160a01b038116600114155b613130576040805162461bcd60e51b815260206004820152601e6024820152600080516020613492833981519152604482015290519081900360640190fd5b6001600160a01b03818116600090815260026020526040902054161561319d576040805162461bcd60e51b815260206004820181905260248201527f4475706c6963617465206f776e657220616464726573732070726f7669646564604482015290519081900360640190fd5b6001600160a01b03928316600090815260026020526040902080546001600160a01b031916938216939093179092556001016130a3565b506001600160a01b0316600090815260026020526040902080546001600160a01b03191660011790559051600355600455565b7f6c9a6c4a39284e37ed1cf53d337577d14212a4870fb976a4366c693b939918d555565b600160008190526020527fcc69885fda6bcc1a4ace058b4a62bf5e179ea78fd58a1ccd71c22cc9b688792f546001600160a01b03161561329c5760405162461bcd60e51b81526004018080602001828103825260258152602001806134b26025913960400191505060405180910390fd5b6001600081905260208190527fcc69885fda6bcc1a4ace058b4a62bf5e179ea78fd58a1ccd71c22cc9b688792f80546001600160a01b03191690911790556001600160a01b038216156111f2576132f482825a6133bb565b6111f2576040805162461bcd60e51b815260206004820152601f60248201527f436f756c64206e6f742066696e69736820696e697469616c697a6174696f6e00604482015290519081900360640190fd5b60008261335457506000611355565b8282028284828161336157fe5b041461336c57600080fd5b9392505050565b60419081029190910160208101516040820151919092015160ff1692565b60008282018381101561336c57600080fd5b6000806000845160208601878987f195945050505050565b60008060008451602086018786f4949350505050565b604080516001600160a01b038416602482015260448082018490528251808303909101815260649091019091526020810180516001600160e01b031663a9059cbb60e01b1781528151600092918391829182896127105a03f16040513d81016040523d6000823e3d801561345057602081146134585760009450613462565b829450613462565b8151158315171594505b50505050939250505056fe496e76616c6964206d617374657220636f707920616464726573732070726f7669646564496e76616c6964206f776e657220616464726573732070726f766964656400004d6f64756c6573206861766520616c7265616479206265656e20696e697469616c697a6564496e76616c696420636f6e7472616374207369676e61747572652070726f7669646564496e76616c696420707265764d6f64756c652c206d6f64756c6520706169722070726f76696465645468726573686f6c642063616e6e6f7420657863656564206f776e657220636f756e744e6577206f776e657220636f756e74206e6565647320746f206265206c6172676572207468616e206e6577207468726573686f6c64436f756c64206e6f74207061792067617320636f737473207769746820746f6b656e496e76616c696420707265764f776e65722c206f776e657220706169722070726f7669646564496e76616c696420636f6e7472616374207369676e6174757265206c6f636174696f6e3a2064617461206e6f7420636f6d706c6574655468726573686f6c64206e6565647320746f2062652067726561746572207468616e2030496e76616c696420636f6e7472616374207369676e6174757265206c6f636174696f6e3a20696e736964652073746174696320706172744d6574686f642063616e206f6e6c792062652063616c6c65642066726f6d207468697320636f6e74726163744d6574686f642063616e206f6e6c792062652063616c6c65642066726f6d20616e20656e61626c6564206d6f64756c65496e76616c696420636f6e7472616374207369676e6174757265206c6f636174696f6e3a206c656e677468206e6f742070726573656e74436f756c64206e6f74207061792067617320636f73747320776974682065746865724e6f7420656e6f7567682067617320746f20657865637574652073616665207472616e73616374696f6ea265627a7a7231582044bc32272b572b92167118b762edb3e48fcd353e1ccecf18553d7f0a8d8ed25464736f6c63430005110032","linkReferences":{}},"methodIdentifiers":{"NAME()":"a3f4df7e","VERSION()":"ffa1ad74","addOwnerWithThreshold(address,uint256)":"0d582f13","approveHash(bytes32)":"d4d9bdcd","approvedHashes(address,bytes32)":"7d832974","changeMasterCopy(address)":"7de7edef","changeThreshold(uint256)":"694e80c3","disableModule(address,address)":"e009cfde","domainSeparator()":"f698da25","enableModule(address)":"610b5925","encodeTransactionData(address,uint256,bytes,uint8,uint256,uint256,uint256,address,address,uint256)":"e86637db","execTransaction(address,uint256,bytes,uint8,uint256,uint256,uint256,address,address,bytes)":"6a761202","execTransactionFromModule(address,uint256,bytes,uint8)":"468721a7","execTransactionFromModuleReturnData(address,uint256,bytes,uint8)":"5229073f","getMessageHash(bytes)":"0a1028c4","getModules()":"b2494df3","getModulesPaginated(address,uint256)":"cc2f8452","getOwners()":"a0e67e2b","getThreshold()":"e75235b8","getTransactionHash(address,uint256,bytes,uint8,uint256,uint256,uint256,address,address,uint256)":"d8d11f78","isOwner(address)":"2f54bf6e","isValidSignature(bytes,bytes)":"20c13b0b","nonce()":"affed0e0","removeOwner(address,address,uint256)":"f8dc5dd9","requiredTxGas(address,uint256,bytes,uint8)":"c4ca3a9c","setFallbackHandler(address)":"f08a0323","setup(address[],uint256,address,bytes,address,address,uint256,address)":"b63e800d","signMessage(bytes)":"85a5affe","signedMessages(bytes32)":"5ae6bd37","swapOwner(address,address,address)":"e318b52b"},"id":17}