{"abi":[{"type":"function","name":"NAME","inputs":[],"outputs":[{"name":"","type":"string","internalType":"string"}],"stateMutability":"view"},{"type":"function","name":"VERSION","inputs":[],"outputs":[{"name":"","type":"string","internalType":"string"}],"stateMutability":"view"},{"type":"function","name":"onERC1155BatchReceived","inputs":[{"name":"","type":"address","internalType":"address"},{"name":"","type":"address","internalType":"address"},{"name":"","type":"uint256[]","internalType":"uint256[]"},{"name":"","type":"uint256[]","internalType":"uint256[]"},{"name":"","type":"bytes","internalType":"bytes"}],"outputs":[{"name":"","type":"bytes4","internalType":"bytes4"}],"stateMutability":"nonpayable"},{"type":"function","name":"onERC1155Received","inputs":[{"name":"","type":"address","internalType":"address"},{"name":"","type":"address","internalType":"address"},{"name":"","type":"uint256","internalType":"uint256"},{"name":"","type":"uint256","internalType":"uint256"},{"name":"","type":"bytes","internalType":"bytes"}],"outputs":[{"name":"","type":"bytes4","internalType":"bytes4"}],"stateMutability":"nonpayable"},{"type":"function","name":"onERC721Received","inputs":[{"name":"","type":"address","internalType":"address"},{"name":"","type":"address","internalType":"address"},{"name":"","type":"uint256","internalType":"uint256"},{"name":"","type":"bytes","internalType":"bytes"}],"outputs":[{"name":"","type":"bytes4","internalType":"bytes4"}],"stateMutability":"nonpayable"},{"type":"function","name":"tokensReceived","inputs":[{"name":"","type":"address","internalType":"address"},{"name":"","type":"address","internalType":"address"},{"name":"","type":"address","internalType":"address"},{"name":"","type":"uint256","internalType":"uint256"},{"name":"","type":"bytes","internalType":"bytes"},{"name":"","type":"bytes","internalType":"bytes"}],"outputs":[],"stateMutability":"nonpayable"}],"bytecode":{"object":"0x608060405234801561001057600080fd5b50610508806100206000396000f3fe608060405234801561001057600080fd5b50600436106100615760003560e01c806223de2914610066578063150b7a021461014e578063a3f4df7e146101f9578063bc197c8114610276578063f23a6e611461039d578063ffa1ad7414610430575b600080fd5b61014c600480360360c081101561007c57600080fd5b6001600160a01b03823581169260208101358216926040820135909216916060820135919081019060a081016080820135600160201b8111156100be57600080fd5b8201836020820111156100d057600080fd5b803590602001918460018302840111600160201b831117156100f157600080fd5b919390929091602081019035600160201b81111561010e57600080fd5b82018360208201111561012057600080fd5b803590602001918460018302840111600160201b8311171561014157600080fd5b509092509050610438565b005b6101dc6004803603608081101561016457600080fd5b6001600160a01b03823581169260208101359091169160408201359190810190608081016060820135600160201b81111561019e57600080fd5b8201836020820111156101b057600080fd5b803590602001918460018302840111600160201b831117156101d157600080fd5b509092509050610442565b604080516001600160e01b03199092168252519081900360200190f35b610201610453565b6040805160208082528351818301528351919283929083019185019080838360005b8381101561023b578181015183820152602001610223565b50505050905090810190601f1680156102685780820380516001836020036101000a031916815260200191505b509250505060405180910390f35b6101dc600480360360a081101561028c57600080fd5b6001600160a01b038235811692602081013590911691810190606081016040820135600160201b8111156102bf57600080fd5b8201836020820111156102d157600080fd5b803590602001918460208302840111600160201b831117156102f257600080fd5b919390929091602081019035600160201b81111561030f57600080fd5b82018360208201111561032157600080fd5b803590602001918460208302840111600160201b8311171561034257600080fd5b919390929091602081019035600160201b81111561035f57600080fd5b82018360208201111561037157600080fd5b803590602001918460018302840111600160201b8311171561039257600080fd5b50909250905061048c565b6101dc600480360360a08110156103b357600080fd5b6001600160a01b03823581169260208101359091169160408201359160608101359181019060a081016080820135600160201b8111156103f257600080fd5b82018360208201111561040457600080fd5b803590602001918460018302840111600160201b8311171561042557600080fd5b5090925090506104a0565b6102016104b2565b5050505050505050565b630a85bd0160e11b95945050505050565b6040518060400160405280601881526020017f44656661756c742043616c6c6261636b2048616e646c6572000000000000000081525081565b63bc197c8160e01b98975050505050505050565b63f23a6e6160e01b9695505050505050565b604051806040016040528060058152602001640312e302e360dc1b8152508156fea265627a7a723158207cdb3136cdad1ff24012d639cdbfa8df6245bdc5816ad6cf23078529e2aedb3b64736f6c63430005110032","linkReferences":{}},"methodIdentifiers":{"NAME()":"a3f4df7e","VERSION()":"ffa1ad74","onERC1155BatchReceived(address,address,uint256[],uint256[],bytes)":"bc197c81","onERC1155Received(address,address,uint256,uint256,bytes)":"f23a6e61","onERC721Received(address,address,uint256,bytes)":"150b7a02","tokensReceived(address,address,address,uint256,bytes,bytes)":"0023de29"},"id":29}