{"abi":[{"type":"function","name":"addMinter","inputs":[{"name":"account","type":"address","internalType":"address"}],"outputs":[],"stateMutability":"nonpayable"},{"type":"function","name":"allowance","inputs":[{"name":"owner","type":"address","internalType":"address"},{"name":"spender","type":"address","internalType":"address"}],"outputs":[{"name":"","type":"uint256","internalType":"uint256"}],"stateMutability":"view"},{"type":"function","name":"approve","inputs":[{"name":"spender","type":"address","internalType":"address"},{"name":"amount","type":"uint256","internalType":"uint256"}],"outputs":[{"name":"","type":"bool","internalType":"bool"}],"stateMutability":"nonpayable"},{"type":"function","name":"balanceOf","inputs":[{"name":"account","type":"address","internalType":"address"}],"outputs":[{"name":"","type":"uint256","internalType":"uint256"}],"stateMutability":"view"},{"type":"function","name":"decreaseAllowance","inputs":[{"name":"spender","type":"address","internalType":"address"},{"name":"subtractedValue","type":"uint256","internalType":"uint256"}],"outputs":[{"name":"","type":"bool","internalType":"bool"}],"stateMutability":"nonpayable"},{"type":"function","name":"increaseAllowance","inputs":[{"name":"spender","type":"address","internalType":"address"},{"name":"addedValue","type":"uint256","internalType":"uint256"}],"outputs":[{"name":"","type":"bool","internalType":"bool"}],"stateMutability":"nonpayable"},{"type":"function","name":"isMinter","inputs":[{"name":"account","type":"address","internalType":"address"}],"outputs":[{"name":"","type":"bool","internalType":"bool"}],"stateMutability":"view"},{"type":"function","name":"mint","inputs":[{"name":"account","type":"address","internalType":"address"},{"name":"amount","type":"uint256","internalType":"uint256"}],"outputs":[{"name":"","type":"bool","internalType":"bool"}],"stateMutability":"nonpayable"},{"type":"function","name":"renounceMinter","inputs":[],"outputs":[],"stateMutability":"nonpayable"},{"type":"function","name":"totalSupply","inputs":[],"outputs":[{"name":"","type":"uint256","internalType":"uint256"}],"stateMutability":"view"},{"type":"function","name":"transfer","inputs":[{"name":"recipient","type":"address","internalType":"address"},{"name":"amount","type":"uint256","internalType":"uint256"}],"outputs":[{"name":"","type":"bool","internalType":"bool"}],"stateMutability":"nonpayable"},{"type":"function","name":"transferFrom","inputs":[{"name":"sender","type":"address","internalType":"address"},{"name":"recipient","type":"address","internalType":"address"},{"name":"amount","type":"uint256","internalType":"uint256"}],"outputs":[{"name":"","type":"bool","internalType":"bool"}],"stateMutability":"nonpayable"},{"type":"event","name":"Approval","inputs":[{"name":"owner","type":"address","indexed":true,"internalType":"address"},{"name":"spender","type":"address","indexed":true,"internalType":"address"},{"name":"value","type":"uint256","indexed":false,"internalType":"uint256"}],"anonymous":false},{"type":"event","name":"MinterAdded","inputs":[{"name":"account","type":"address","indexed":true,"internalType":"address"}],"anonymous":false},{"type":"event","name":"MinterRemoved","inputs":[{"name":"account","type":"address","indexed":true,"internalType":"address"}],"anonymous":false},{"type":"event","name":"Transfer","inputs":[{"name":"from","type":"address","indexed":true,"internalType":"address"},{"name":"to","type":"address","indexed":true,"internalType":"address"},{"name":"value","type":"uint256","indexed":false,"internalType":"uint256"}],"anonymous":false}],"bytecode":{"object":"0x60806040526100266100186001600160e01b0361002b16565b6001600160e01b0361002f16565b61016f565b3390565b61004781600361007e60201b610a6e1790919060201c565b6040516001600160a01b038216907f6ae172837ea30b801fbfcdd4108aa1d5bf8ff775444fd70256b44e6bf3dfc3f690600090a250565b61009182826001600160e01b0361010816565b156100e3576040805162461bcd60e51b815260206004820152601f60248201527f526f6c65733a206163636f756e7420616c72656164792068617320726f6c6500604482015290519081900360640190fd5b6001600160a01b0316600090815260209190915260409020805460ff19166001179055565b60006001600160a01b03821661014f5760405162461bcd60e51b8152600401808060200182810382526022815260200180610e7d6022913960400191505060405180910390fd5b506001600160a01b03166000908152602091909152604090205460ff1690565b610cff8061017e6000396000f3fe608060405234801561001057600080fd5b50600436106100b45760003560e01c8063983b2d5611610071578063983b2d56146101c757806398650275146101ef578063a457c2d7146101f7578063a9059cbb14610223578063aa271e1a1461024f578063dd62ed3e14610275576100b4565b8063095ea7b3146100b957806318160ddd146100f957806323b872dd14610113578063395093511461014957806340c10f191461017557806370a08231146101a1575b600080fd5b6100e5600480360360408110156100cf57600080fd5b506001600160a01b0381351690602001356102a3565b604080519115158252519081900360200190f35b6101016102c0565b60408051918252519081900360200190f35b6100e56004803603606081101561012957600080fd5b506001600160a01b038135811691602081013590911690604001356102c6565b6100e56004803603604081101561015f57600080fd5b506001600160a01b038135169060200135610353565b6100e56004803603604081101561018b57600080fd5b506001600160a01b0381351690602001356103a7565b610101600480360360208110156101b757600080fd5b50356001600160a01b03166103fe565b6101ed600480360360208110156101dd57600080fd5b50356001600160a01b0316610419565b005b6101ed61046b565b6100e56004803603604081101561020d57600080fd5b506001600160a01b03813516906020013561047d565b6100e56004803603604081101561023957600080fd5b506001600160a01b0381351690602001356104eb565b6100e56004803603602081101561026557600080fd5b50356001600160a01b03166104ff565b6101016004803603604081101561028b57600080fd5b506001600160a01b0381358116916020013516610518565b60006102b76102b0610543565b8484610547565b50600192915050565b60025490565b60006102d3848484610633565b610349846102df610543565b61034485604051806060016040528060288152602001610c13602891396001600160a01b038a1660009081526001602052604081209061031d610543565b6001600160a01b03168152602081019190915260400160002054919063ffffffff61078f16565b610547565b5060019392505050565b60006102b7610360610543565b846103448560016000610371610543565b6001600160a01b03908116825260208083019390935260409182016000908120918c16815292529020549063ffffffff61082616565b60006103b96103b4610543565b6104ff565b6103f45760405162461bcd60e51b8152600401808060200182810382526030815260200180610bc26030913960400191505060405180910390fd5b6102b78383610887565b6001600160a01b031660009081526020819052604090205490565b6104246103b4610543565b61045f5760405162461bcd60e51b8152600401808060200182810382526030815260200180610bc26030913960400191505060405180910390fd5b61046881610977565b50565b61047b610476610543565b6109bf565b565b60006102b761048a610543565b8461034485604051806060016040528060258152602001610ca660259139600160006104b4610543565b6001600160a01b03908116825260208083019390935260409182016000908120918d1681529252902054919063ffffffff61078f16565b60006102b76104f8610543565b8484610633565b600061051260038363ffffffff610a0716565b92915050565b6001600160a01b03918216600090815260016020908152604080832093909416825291909152205490565b3390565b6001600160a01b03831661058c5760405162461bcd60e51b8152600401808060200182810382526024815260200180610c826024913960400191505060405180910390fd5b6001600160a01b0382166105d15760405162461bcd60e51b8152600401808060200182810382526022815260200180610b7a6022913960400191505060405180910390fd5b6001600160a01b03808416600081815260016020908152604080832094871680845294825291829020859055815185815291517f8c5be1e5ebec7d5bd14f71427d1e84f3dd0314c0f7b2291e5b200ac8c7c3b9259281900390910190a3505050565b6001600160a01b0383166106785760405162461bcd60e51b8152600401808060200182810382526025815260200180610c5d6025913960400191505060405180910390fd5b6001600160a01b0382166106bd5760405162461bcd60e51b8152600401808060200182810382526023815260200180610b576023913960400191505060405180910390fd5b61070081604051806060016040528060268152602001610b9c602691396001600160a01b038616600090815260208190526040902054919063ffffffff61078f16565b6001600160a01b038085166000908152602081905260408082209390935590841681522054610735908263ffffffff61082616565b6001600160a01b038084166000818152602081815260409182902094909455805185815290519193928716927fddf252ad1be2c89b69c2b068fc378daa952ba7f163c4a11628f55a4df523b3ef92918290030190a3505050565b6000818484111561081e5760405162461bcd60e51b81526004018080602001828103825283818151815260200191508051906020019080838360005b838110156107e35781810151838201526020016107cb565b50505050905090810190601f1680156108105780820380516001836020036101000a031916815260200191505b509250505060405180910390fd5b505050900390565b600082820183811015610880576040805162461bcd60e51b815260206004820152601b60248201527f536166654d6174683a206164646974696f6e206f766572666c6f770000000000604482015290519081900360640190fd5b9392505050565b6001600160a01b0382166108e2576040805162461bcd60e51b815260206004820152601f60248201527f45524332303a206d696e7420746f20746865207a65726f206164647265737300604482015290519081900360640190fd5b6002546108f5908263ffffffff61082616565b6002556001600160a01b038216600090815260208190526040902054610921908263ffffffff61082616565b6001600160a01b0383166000818152602081815260408083209490945583518581529351929391927fddf252ad1be2c89b69c2b068fc378daa952ba7f163c4a11628f55a4df523b3ef9281900390910190a35050565b61098860038263ffffffff610a6e16565b6040516001600160a01b038216907f6ae172837ea30b801fbfcdd4108aa1d5bf8ff775444fd70256b44e6bf3dfc3f690600090a250565b6109d060038263ffffffff610aef16565b6040516001600160a01b038216907fe94479a9f7e1952cc78f2d6baab678adc1b772d936c6583def489e524cb6669290600090a250565b60006001600160a01b038216610a4e5760405162461bcd60e51b8152600401808060200182810382526022815260200180610c3b6022913960400191505060405180910390fd5b506001600160a01b03166000908152602091909152604090205460ff1690565b610a788282610a07565b15610aca576040805162461bcd60e51b815260206004820152601f60248201527f526f6c65733a206163636f756e7420616c72656164792068617320726f6c6500604482015290519081900360640190fd5b6001600160a01b0316600090815260209190915260409020805460ff19166001179055565b610af98282610a07565b610b345760405162461bcd60e51b8152600401808060200182810382526021815260200180610bf26021913960400191505060405180910390fd5b6001600160a01b0316600090815260209190915260409020805460ff1916905556fe45524332303a207472616e7366657220746f20746865207a65726f206164647265737345524332303a20617070726f766520746f20746865207a65726f206164647265737345524332303a207472616e7366657220616d6f756e7420657863656564732062616c616e63654d696e746572526f6c653a2063616c6c657220646f6573206e6f74206861766520746865204d696e74657220726f6c65526f6c65733a206163636f756e7420646f6573206e6f74206861766520726f6c6545524332303a207472616e7366657220616d6f756e74206578636565647320616c6c6f77616e6365526f6c65733a206163636f756e7420697320746865207a65726f206164647265737345524332303a207472616e736665722066726f6d20746865207a65726f206164647265737345524332303a20617070726f76652066726f6d20746865207a65726f206164647265737345524332303a2064656372656173656420616c6c6f77616e63652062656c6f77207a65726fa265627a7a723158206b6e87528926ff9219e885c90959476d3111bddfddf0fc7e15f89992c6ea500d64736f6c63430005110032526f6c65733a206163636f756e7420697320746865207a65726f2061646472657373","linkReferences":{}},"methodIdentifiers":{"addMinter(address)":"983b2d56","allowance(address,address)":"dd62ed3e","approve(address,uint256)":"095ea7b3","balanceOf(address)":"70a08231","decreaseAllowance(address,uint256)":"a457c2d7","increaseAllowance(address,uint256)":"39509351","isMinter(address)":"aa271e1a","mint(address,uint256)":"40c10f19","renounceMinter()":"98650275","totalSupply()":"18160ddd","transfer(address,uint256)":"a9059cbb","transferFrom(address,address,uint256)":"23b872dd"},"id":38}