{"abi":[{"type":"function","name":"balanceOf","inputs":[{"name":"owner","type":"address","internalType":"address"},{"name":"id","type":"uint256","internalType":"uint256"}],"outputs":[{"name":"","type":"uint256","internalType":"uint256"}],"stateMutability":"view"},{"type":"function","name":"balanceOfBatch","inputs":[{"name":"owners","type":"address[]","internalType":"address[]"},{"name":"ids","type":"uint256[]","internalType":"uint256[]"}],"outputs":[{"name":"","type":"uint256[]","internalType":"uint256[]"}],"stateMutability":"view"},{"type":"function","name":"getCollectionId","inputs":[{"name":"parentCollectionId","type":"bytes32","internalType":"bytes32"},{"name":"conditionId","type":"bytes32","internalType":"bytes32"},{"name":"indexSet","type":"uint256","internalType":"uint256"}],"outputs":[{"name":"","type":"bytes32","internalType":"bytes32"}],"stateMutability":"view"},{"type":"function","name":"getConditionId","inputs":[{"name":"oracle","type":"address","internalType":"address"},{"name":"questionId","type":"bytes32","internalType":"bytes32"},{"name":"outcomeSlotCount","type":"uint256","internalType":"uint256"}],"outputs":[{"name":"","type":"bytes32","internalType":"bytes32"}],"stateMutability":"pure"},{"type":"function","name":"getOutcomeSlotCount","inputs":[{"name":"conditionId","type":"bytes32","internalType":"bytes32"}],"outputs":[{"name":"","type":"uint256","internalType":"uint256"}],"stateMutability":"view"},{"type":"function","name":"getPositionId","inputs":[{"name":"collateralToken","type":"address","internalType":"contract IERC20"},{"name":"collectionId","type":"bytes32","internalType":"bytes32"}],"outputs":[{"name":"","type":"uint256","internalType":"uint256"}],"stateMutability":"pure"},{"type":"function","name":"isApprovedForAll","inputs":[{"name":"owner","type":"address","internalType":"address"},{"name":"operator","type":"address","internalType":"address"}],"outputs":[{"name":"","type":"bool","internalType":"bool"}],"stateMutability":"view"},{"type":"function","name":"mergePositions","inputs":[{"name":"collateralToken","type":"address","internalType":"contract IERC20"},{"name":"parentCollectionId","type":"bytes32","internalType":"bytes32"},{"name":"conditionId","type":"bytes32","internalType":"bytes32"},{"name":"partition","type":"uint256[]","internalType":"uint256[]"},{"name":"amount","type":"uint256","internalType":"uint256"}],"outputs":[],"stateMutability":"nonpayable"},{"type":"function","name":"payoutDenominator","inputs":[{"name":"","type":"bytes32","internalType":"bytes32"}],"outputs":[{"name":"","type":"uint256","internalType":"uint256"}],"stateMutability":"view"},{"type":"function","name":"payoutNumerators","inputs":[{"name":"","type":"bytes32","internalType":"bytes32"},{"name":"","type":"uint256","internalType":"uint256"}],"outputs":[{"name":"","type":"uint256","internalType":"uint256"}],"stateMutability":"view"},{"type":"function","name":"prepareCondition","inputs":[{"name":"oracle","type":"address","internalType":"address"},{"name":"questionId","type":"bytes32","internalType":"bytes32"},{"name":"outcomeSlotCount","type":"uint256","internalType":"uint256"}],"outputs":[],"stateMutability":"nonpayable"},{"type":"function","name":"redeemPositions","inputs":[{"name":"collateralToken","type":"address","internalType":"contract IERC20"},{"name":"parentCollectionId","type":"bytes32","internalType":"bytes32"},{"name":"conditionId","type":"bytes32","internalType":"bytes32"},{"name":"indexSets","type":"uint256[]","internalType":"uint256[]"}],"outputs":[],"stateMutability":"nonpayable"},{"type":"function","name":"reportPayouts","inputs":[{"name":"questionId","type":"bytes32","internalType":"bytes32"},{"name":"payouts","type":"uint256[]","internalType":"uint256[]"}],"outputs":[],"stateMutability":"nonpayable"},{"type":"function","name":"safeBatchTransferFrom","inputs":[{"name":"from","type":"address","internalType":"address"},{"name":"to","type":"address","internalType":"address"},{"name":"ids","type":"uint256[]","internalType":"uint256[]"},{"name":"values","type":"uint256[]","internalType":"uint256[]"},{"name":"data","type":"bytes","internalType":"bytes"}],"outputs":[],"stateMutability":"nonpayable"},{"type":"function","name":"safeTransferFrom","inputs":[{"name":"from","type":"address","internalType":"address"},{"name":"to","type":"address","internalType":"address"},{"name":"id","type":"uint256","internalType":"uint256"},{"name":"value","type":"uint256","internalType":"uint256"},{"name":"data","type":"bytes","internalType":"bytes"}],"outputs":[],"stateMutability":"nonpayable"},{"type":"function","name":"setApprovalForAll","inputs":[{"name":"operator","type":"address","internalType":"address"},{"name":"approved","type":"bool","internalType":"bool"}],"outputs":[],"stateMutability":"nonpayable"},{"type":"function","name":"splitPosition","inputs":[{"name":"collateralToken","type":"address","internalType":"contract IERC20"},{"name":"parentCollectionId","type":"bytes32","internalType":"bytes32"},{"name":"conditionId","type":"bytes32","internalType":"bytes32"},{"name":"partition","type":"uint256[]","internalType":"uint256[]"},{"name":"amount","type":"uint256","internalType":"uint256"}],"outputs":[],"stateMutability":"nonpayable"},{"type":"function","name":"supportsInterface","inputs":[{"name":"interfaceId","type":"bytes4","internalType":"bytes4"}],"outputs":[{"name":"","type":"bool","internalType":"bool"}],"stateMutability":"view"},{"type":"event","name":"ApprovalForAll","inputs":[{"name":"owner","type":"address","indexed":true,"internalType":"address"},{"name":"operator","type":"address","indexed":true,"internalType":"address"},{"name":"approved","type":"bool","indexed":false,"internalType":"bool"}],"anonymous":false},{"type":"event","name":"ConditionPreparation","inputs":[{"name":"conditionId","type":"bytes32","indexed":true,"internalType":"bytes32"},{"name":"oracle","type":"address","indexed":true,"internalType":"address"},{"name":"questionId","type":"bytes32","indexed":true,"internalType":"bytes32"},{"name":"outcomeSlotCount","type":"uint256","indexed":false,"internalType":"uint256"}],"anonymous":false},{"type":"event","name":"ConditionResolution","inputs":[{"name":"conditionId","type":"bytes32","indexed":true,"internalType":"bytes32"},{"name":"oracle","type":"address","indexed":true,"internalType":"address"},{"name":"questionId","type":"bytes32","indexed":true,"internalType":"bytes32"},{"name":"outcomeSlotCount","type":"uint256","indexed":false,"internalType":"uint256"},{"name":"payoutNumerators","type":"uint256[]","indexed":false,"internalType":"uint256[]"}],"anonymous":false},{"type":"event","name":"PayoutRedemption","inputs":[{"name":"redeemer","type":"address","indexed":true,"internalType":"address"},{"name":"collateralToken","type":"address","indexed":true,"internalType":"contract IERC20"},{"name":"parentCollectionId","type":"bytes32","indexed":true,"internalType":"bytes32"},{"name":"conditionId","type":"bytes32","indexed":false,"internalType":"bytes32"},{"name":"indexSets","type":"uint256[]","indexed":false,"internalType":"uint256[]"},{"name":"payout","type":"uint256","indexed":false,"internalType":"uint256"}],"anonymous":false},{"type":"event","name":"PositionSplit","inputs":[{"name":"stakeholder","type":"address","indexed":true,"internalType":"address"},{"name":"collateralToken","type":"address","indexed":false,"internalType":"contract IERC20"},{"name":"parentCollectionId","type":"bytes32","indexed":true,"internalType":"bytes32"},{"name":"conditionId","type":"bytes32","indexed":true,"internalType":"bytes32"},{"name":"partition","type":"uint256[]","indexed":false,"internalType":"uint256[]"},{"name":"amount","type":"uint256","indexed":false,"internalType":"uint256"}],"anonymous":false},{"type":"event","name":"PositionsMerge","inputs":[{"name":"stakeholder","type":"address","indexed":true,"internalType":"address"},{"name":"collateralToken","type":"address","indexed":false,"internalType":"contract IERC20"},{"name":"parentCollectionId","type":"bytes32","indexed":true,"internalType":"bytes32"},{"name":"conditionId","type":"bytes32","indexed":true,"internalType":"bytes32"},{"name":"partition","type":"uint256[]","indexed":false,"internalType":"uint256[]"},{"name":"amount","type":"uint256","indexed":false,"internalType":"uint256"}],"anonymous":false},{"type":"event","name":"TransferBatch","inputs":[{"name":"operator","type":"address","indexed":true,"internalType":"address"},{"name":"from","type":"address","indexed":true,"internalType":"address"},{"name":"to","type":"address","indexed":true,"internalType":"address"},{"name":"ids","type":"uint256[]","indexed":false,"internalType":"uint256[]"},{"name":"values","type":"uint256[]","indexed":false,"internalType":"uint256[]"}],"anonymous":false},{"type":"event","name":"TransferSingle","inputs":[{"name":"operator","type":"address","indexed":true,"internalType":"address"},{"name":"from","type":"address","indexed":true,"internalType":"address"},{"name":"to","type":"address","indexed":true,"internalType":"address"},{"name":"id","type":"uint256","indexed":false,"internalType":"uint256"},{"name":"value","type":"uint256","indexed":false,"internalType":"uint256"}],"anonymous":false},{"type":"event","name":"URI","inputs":[{"name":"value","type":"string","indexed":false,"internalType":"string"},{"name":"id","type":"uint256","indexed":true,"internalType":"uint256"}],"anonymous":false}],"bytecode":{"object":"0x6080604052348015600f57600080fd5b506136798061001f6000396000f3fe608060405234801561001057600080fd5b50600436106101155760003560e01c8063856296f7116100a2578063d42dc0c211610071578063d42dc0c214610243578063d96ee75414610263578063dd34de6714610276578063e985e9c514610296578063f242432a146102d257600080fd5b8063856296f7146101f75780639e7212ad1461020a578063a22cb4651461021d578063c49298ac1461023057600080fd5b80632eb2c2d6116100e95780632eb2c2d61461018b57806339dd75301461019e5780634e1273f4146101b157806372ce4275146101d1578063852c6ae2146101e457600080fd5b8062fdd58e1461011a57806301b7037c1461014057806301ffc9a7146101555780630504c81414610178575b600080fd5b61012d610128366004612a36565b6102e5565b6040519081526020015b60405180910390f35b61015361014e366004612aad565b61037f565b005b610168610163366004612b2c565b61069e565b6040519015158152602001610137565b61012d610186366004612b49565b6106ee565b610153610199366004612bac565b61071f565b61012d6101ac366004612a36565b61099a565b6101c46101bf366004612d4d565b6109ad565b6040516101379190612e5e565b6101536101df366004612e71565b610b97565b61012d6101f2366004612ee2565b610f22565b61012d610205366004612f17565b610f37565b610153610218366004612e71565b610f44565b61015361022b366004612f51565b6112a8565b61015361023e366004612f8a565b611314565b61012d610251366004612fd5565b60009081526002602052604090205490565b610153610271366004612ee2565b611593565b61012d610284366004612fd5565b60036020526000908152604090205481565b6101686102a4366004612fee565b6001600160a01b03918216600090815260016020908152604080832093909416825291909152205460ff1690565b6101536102e036600461301c565b61171b565b60006001600160a01b0383166103565760405162461bcd60e51b815260206004820152602b60248201527f455243313135353a2062616c616e636520717565727920666f7220746865207a60448201526a65726f206164647265737360a81b60648201526084015b60405180910390fd5b506000818152602081815260408083206001600160a01b03861684529091529020545b92915050565b600083815260036020526040902054806103e95760405162461bcd60e51b815260206004820152602560248201527f726573756c7420666f7220636f6e646974696f6e206e6f74207265636569766560448201526419081e595d60da1b606482015260840161034d565b600084815260026020526040902054806104155760405162461bcd60e51b815260040161034d90613097565b600080610425600180851b6130e4565b905060005b8581101561053b576000878783818110610446576104466130f7565b90506020020135905060008111801561045e57508281105b61047a5760405162461bcd60e51b815260040161034d9061310d565b60006104908c61048b8d8d8661189c565b611ba1565b90506000805b878110156104ea576001811b8416156104e25760008c81526002602052604090208054829081106104c9576104c96130f7565b9060005260206000200154826104df919061313c565b91505b600101610496565b5060006104f733846102e5565b9050801561052b578861050a838361314f565b610514919061317c565b61051e908861313c565b965061052b338483611be9565b50506001909201915061042a9050565b508115610641578761061d5760405163a9059cbb60e01b8152336004820152602481018390526001600160a01b038a169063a9059cbb906044016020604051808303816000875af1158015610594573d6000803e3d6000fd5b505050506040513d601f19601f820116820180604052508101906105b89190613190565b6106185760405162461bcd60e51b815260206004820152602b60248201527f636f756c64206e6f74207472616e73666572207061796f757420746f206d657360448201526a39b0b3b29039b2b73232b960a91b606482015260840161034d565b610641565b6106413361062b8b8b611ba1565b8460405180602001604052806000815250611c6d565b87896001600160a01b0316336001600160a01b03167f2682012a4a4f1973119f1c9b90745d1bd91fa2bab387344f044cb3586864d18d8a8a8a8860405161068b94939291906131df565b60405180910390a4505050505050505050565b60006001600160e01b03198216636cdb3d1360e11b14806106cf57506001600160e01b03198216630271189760e51b145b8061037957506301ffc9a760e01b6001600160e01b0319831614610379565b6002602052816000526040600020818154811061070a57600080fd5b90600052602060002001600091509150505481565b84831461073e5760405162461bcd60e51b815260040161034d9061320a565b6001600160a01b0387166107645760405162461bcd60e51b815260040161034d90613258565b6001600160a01b0388163314806107a257506001600160a01b03881660009081526001602081815260408084203385529091529091205460ff161515145b6107be5760405162461bcd60e51b815260040161034d906132a0565b60005b858110156108905760008787838181106107dd576107dd6130f7565b90506020020135905060008686848181106107fa576107fa6130f7565b9050602002013590508060008084815260200190815260200160002060008d6001600160a01b03166001600160a01b03168152602001908152602001600020600082825461084891906130e4565b90915550506000828152602081815260408083206001600160a01b038e1684529091528120805483929061087d90849061313c565b9091555050600190920191506107c19050565b50866001600160a01b0316886001600160a01b0316336001600160a01b03167f4a39dc06d4c0dbc64b70af90fd698a233a518aa5d07e595d983b8c0526c8f7fb898989896040516108e494939291906132fd565b60405180910390a461099033898989898080602002602001604051908101604052809392919081815260200183836020028082843760009201919091525050604080516020808d0282810182019093528c82529093508c92508b91829185019084908082843760009201919091525050604080516020601f8c018190048102820181019092528a815292508a9150899081908401838280828437600092019190915250611d6092505050565b5050505050505050565b60006109a68383611ba1565b9392505050565b60608151835114610a175760405162461bcd60e51b815260206004820152602e60248201527f455243313135353a206f776e65727320616e6420494473206d7573742068617660448201526d652073616d65206c656e6774687360901b606482015260840161034d565b600083516001600160401b03811115610a3257610a32612c74565b604051908082528060200260200182016040528015610a5b578160200160208202803683370190505b50905060005b8451811015610b8f5760006001600160a01b0316858281518110610a8757610a876130f7565b60200260200101516001600160a01b031603610b025760405162461bcd60e51b815260206004820152603460248201527f455243313135353a20736f6d65206164647265737320696e2062617463682062604482015273616c616e6365207175657279206973207a65726f60601b606482015260840161034d565b600080858381518110610b1757610b176130f7565b602002602001015181526020019081526020016000206000868381518110610b4157610b416130f7565b60200260200101516001600160a01b03166001600160a01b0316815260200190815260200160002054828281518110610b7c57610b7c6130f7565b6020908102919091010152600101610a61565b509392505050565b60018211610be75760405162461bcd60e51b815260206004820181905260248201527f676f7420656d707479206f722073696e676c65746f6e20706172746974696f6e604482015260640161034d565b60008481526002602052604090205480610c135760405162461bcd60e51b815260040161034d90613097565b6000610c22600180841b6130e4565b9050806000856001600160401b03811115610c3f57610c3f612c74565b604051908082528060200260200182016040528015610c68578160200160208202803683370190505b5090506000866001600160401b03811115610c8557610c85612c74565b604051908082528060200260200182016040528015610cae578160200160208202803683370190505b50905060005b87811015610da6576000898983818110610cd057610cd06130f7565b905060200201359050600081118015610ce857508581105b610d045760405162461bcd60e51b815260040161034d9061310d565b8085821614610d4e5760405162461bcd60e51b81526020600482015260166024820152751c185c9d1a5d1a5bdb881b9bdd08191a5cda9bda5b9d60521b604482015260640161034d565b93841893610d618d61048b8e8e8561189c565b848381518110610d7357610d736130f7565b60200260200101818152505087838381518110610d9257610d926130f7565b602090810291909101015250600101610cb4565b5082600003610e9c5789610e88576040516323b872dd60e01b8152336004820152306024820152604481018790526001600160a01b038c16906323b872dd906064016020604051808303816000875af1158015610e07573d6000803e3d6000fd5b505050506040513d601f19601f82011682018060405250810190610e2b9190613190565b610e835760405162461bcd60e51b815260206004820152602360248201527f636f756c64206e6f74207265636569766520636f6c6c61746572616c20746f6b604482015262656e7360e81b606482015260840161034d565b610eb1565b610e8333610e968d8d611ba1565b88611be9565b610eb133610e968d61048b8e8e898b1861189c565b610ecc33838360405180602001604052806000815250611f05565b888a336001600160a01b03167f2e6bb91f8cbcda0c93623c54d0403a43514fabc40084ec96b6d5379a747862988e8c8c8c604051610f0d949392919061332f565b60405180910390a45050505050505050505050565b6000610f2f848484612084565b949350505050565b6000610f2f84848461189c565b60018211610f945760405162461bcd60e51b815260206004820181905260248201527f676f7420656d707479206f722073696e676c65746f6e20706172746974696f6e604482015260640161034d565b60008481526002602052604090205480610fc05760405162461bcd60e51b815260040161034d90613097565b6000610fcf600180841b6130e4565b9050806000856001600160401b03811115610fec57610fec612c74565b604051908082528060200260200182016040528015611015578160200160208202803683370190505b5090506000866001600160401b0381111561103257611032612c74565b60405190808252806020026020018201604052801561105b578160200160208202803683370190505b50905060005b8781101561115357600089898381811061107d5761107d6130f7565b90506020020135905060008111801561109557508581105b6110b15760405162461bcd60e51b815260040161034d9061310d565b80858216146110fb5760405162461bcd60e51b81526020600482015260166024820152751c185c9d1a5d1a5bdb881b9bdd08191a5cda9bda5b9d60521b604482015260640161034d565b9384189361110e8d61048b8e8e8561189c565b848381518110611120576111206130f7565b6020026020010181815250508783838151811061113f5761113f6130f7565b602090810291909101015250600101611061565b5061115f3383836120d3565b82600003611252578961122e5760405163a9059cbb60e01b8152336004820152602481018790526001600160a01b038c169063a9059cbb906044016020604051808303816000875af11580156111b9573d6000803e3d6000fd5b505050506040513d601f19601f820116820180604052508101906111dd9190613190565b6112295760405162461bcd60e51b815260206004820181905260248201527f636f756c64206e6f742073656e6420636f6c6c61746572616c20746f6b656e73604482015260640161034d565b611267565b6112293361123c8d8d611ba1565b8860405180602001604052806000815250611c6d565b6112673361123c8d61048b8e8e898b1861189c565b888a336001600160a01b03167f6f13ca62553fcc2bcd2372180a43949c1e4cebba603901ede2f4e14f36b282ca8e8c8c8c604051610f0d949392919061332f565b3360008181526001602090815260408083206001600160a01b03871680855290835292819020805460ff191686151590811790915590519081529192917f17307eab39ab6107e8899845ad3d59bd9653f200f220920489ca2b5937696c31910160405180910390a35050565b80600181116113355760405162461bcd60e51b815260040161034d90613354565b6000611342338684612084565b60008181526002602052604090205490915082146113a25760405162461bcd60e51b815260206004820152601f60248201527f636f6e646974696f6e206e6f74207072657061726564206f7220666f756e6400604482015260640161034d565b600081815260036020526040902054156113fe5760405162461bcd60e51b815260206004820152601e60248201527f7061796f75742064656e6f6d696e61746f7220616c7265616479207365740000604482015260640161034d565b6000805b838110156114e957600086868381811061141e5761141e6130f7565b9050602002013590508083611433919061313c565b600085815260026020526040902080549194509083908110611457576114576130f7565b90600052602060002001546000146114b15760405162461bcd60e51b815260206004820152601c60248201527f7061796f7574206e756d657261746f7220616c72656164792073657400000000604482015260640161034d565b60008481526002602052604090208054829190849081106114d4576114d46130f7565b60009182526020909120015550600101611402565b50600081116115315760405162461bcd60e51b81526020600482015260146024820152737061796f757420697320616c6c207a65726f657360601b604482015260640161034d565b600082815260036020908152604080832084905560029091529081902090518791339185917fb44d84d3289691f71497564b85d4233648d9dbae8cbdbb4329f301c3a01858949161158391899161339e565b60405180910390a4505050505050565b6101008111156115de5760405162461bcd60e51b8152602060048201526016602482015275746f6f206d616e79206f7574636f6d6520736c6f747360501b604482015260640161034d565b600181116115fe5760405162461bcd60e51b815260040161034d90613354565b600061160b848484612084565b6000818152600260205260409020549091501561166a5760405162461bcd60e51b815260206004820152601a60248201527f636f6e646974696f6e20616c7265616479207072657061726564000000000000604482015260640161034d565b816001600160401b0381111561168257611682612c74565b6040519080825280602002602001820160405280156116ab578160200160208202803683370190505b50600082815260026020908152604090912082516116cf93919291909101906129be565b5082846001600160a01b0316827fab3760c3bd2bb38b5bcf54dc79802ed67338b4cf29f3054ded67ed24661e41778560405161170d91815260200190565b60405180910390a450505050565b6001600160a01b0385166117415760405162461bcd60e51b815260040161034d90613258565b6001600160a01b03861633148061177f57506001600160a01b03861660009081526001602081815260408084203385529091529091205460ff161515145b61179b5760405162461bcd60e51b815260040161034d906132a0565b6000848152602081815260408083206001600160a01b038a168452909152812080548592906117cb9084906130e4565b90915550506000848152602081815260408083206001600160a01b03891684529091528120805485929061180090849061313c565b909155505060408051858152602081018590526001600160a01b03808816929089169133917fc3d58168c5ae7397731d063d5bbf3d657854427343f4c083240f7aacaa2d0f62910160405180910390a4611894338787878787878080601f0160208091040260200160405190810160405280939291908181526020018383808284376000920191909152506121d592505050565b505050505050565b60008083836040516020016118bb929190918252602082015260400190565b60408051601f198184030181529190528051602090910120905060ff81901c15156000805b600080516020613624833981519152600185089350600080516020613624833981519152600360008051602061362483398151915280878809870908905061192781612219565b915080600080516020613624833981519152838409036118e05782801561195657506119546002836133f2565b155b8061197457508215801561197457506119706002836133f2565b6001145b1561199457611991826000805160206136248339815191526130e4565b91505b878015611b785760fe81901c151593506001600160fe1b0316600080516020613624833981519152600360008051602061362483398151915280848509840908915060006119e183612219565b90508480156119f857506119f66002826133f2565b155b80611a16575084158015611a165750611a126002826133f2565b6001145b15611a3657611a33816000805160206136248339815191526130e4565b90505b8260008051602061362483398151915282830914611a965760405162461bcd60e51b815260206004820152601c60248201527f696e76616c696420706172656e7420636f6c6c656374696f6e20494400000000604482015260640161034d565b60408051602081018890529081018590526060810183905260808101829052600090819060069060a00160408051601f1981840301815290829052611ada9161342a565b600060405180830381855afa9150503d8060008114611b15576040519150601f19603f3d011682016040523d82523d6000602084013e611b1a565b606091505b509150915081611b5b5760405162461bcd60e51b815260206004820152600c60248201526b1958d859190819985a5b195960a21b604482015260640161034d565b80806020019051810190611b6f9190613446565b90985095505050505b611b836002846133f2565b600103611b9457600160fe1b851894505b5092979650505050505050565b6040516bffffffffffffffffffffffff19606084901b1660208201526034810182905260009060540160408051601f1981840301815291905280516020909101209392505050565b6000828152602081815260408083206001600160a01b038716845290915281208054839290611c199084906130e4565b909155505060408051838152602081018390526000916001600160a01b0386169133917fc3d58168c5ae7397731d063d5bbf3d657854427343f4c083240f7aacaa2d0f6291015b60405180910390a4505050565b6001600160a01b038416611ccd5760405162461bcd60e51b815260206004820152602160248201527f455243313135353a206d696e7420746f20746865207a65726f206164647265736044820152607360f81b606482015260840161034d565b6000838152602081815260408083206001600160a01b038816845290915281208054849290611cfd90849061313c565b909155505060408051848152602081018490526001600160a01b0386169160009133917fc3d58168c5ae7397731d063d5bbf3d657854427343f4c083240f7aacaa2d0f62910160405180910390a4611d5a336000868686866121d5565b50505050565b6001600160a01b0384163b156118945760405163bc197c8160e01b81526001600160a01b0385169063bc197c8190611da49089908990889088908890600401613496565b6020604051808303816000875af1925050508015611ddf575060408051601f3d908101601f19168201909252611ddc918101906134f4565b60015b611e8b57611deb613511565b806308c379a003611e245750611dff61352d565b80611e0a5750611e26565b8060405162461bcd60e51b815260040161034d91906135a8565b505b60405162461bcd60e51b815260206004820152603460248201527f455243313135353a207472616e7366657220746f206e6f6e2d455243313135356044820152732932b1b2b4bb32b91034b6b83632b6b2b73a32b960611b606482015260840161034d565b6001600160e01b03198116630271189760e51b14611efc5760405162461bcd60e51b815260206004820152602860248201527f455243313135353a204552433131353552656365697665722072656a656374656044820152676420746f6b656e7360c01b606482015260840161034d565b50505050505050565b6001600160a01b038416611f6b5760405162461bcd60e51b815260206004820152602760248201527f455243313135353a206261746368206d696e7420746f20746865207a65726f206044820152666164647265737360c81b606482015260840161034d565b8151835114611f8c5760405162461bcd60e51b815260040161034d9061320a565b60005b835181101561201c57828181518110611faa57611faa6130f7565b6020026020010151600080868481518110611fc757611fc76130f7565b602002602001015181526020019081526020016000206000876001600160a01b03166001600160a01b03168152602001908152602001600020600082825461200f919061313c565b9091555050600101611f8f565b50836001600160a01b031660006001600160a01b0316336001600160a01b03167f4a39dc06d4c0dbc64b70af90fd698a233a518aa5d07e595d983b8c0526c8f7fb868660405161206d9291906135bb565b60405180910390a4611d5a33600086868686611d60565b6040516bffffffffffffffffffffffff19606085901b16602082015260348101839052605481018290526000906074016040516020818303038152906040528051906020012090509392505050565b80518251146120f45760405162461bcd60e51b815260040161034d9061320a565b60005b825181101561218457818181518110612112576121126130f7565b602002602001015160008085848151811061212f5761212f6130f7565b602002602001015181526020019081526020016000206000866001600160a01b03166001600160a01b03168152602001908152602001600020600082825461217791906130e4565b90915550506001016120f7565b5060006001600160a01b0316836001600160a01b0316336001600160a01b03167f4a39dc06d4c0dbc64b70af90fd698a233a518aa5d07e595d983b8c0526c8f7fb8585604051611c609291906135bb565b6001600160a01b0384163b156118945760405163f23a6e6160e01b81526001600160a01b0385169063f23a6e6190611da490899089908890889088906004016135e9565b6000600080516020613624833981519152808380099150808283098181820990508181840992508183850993508184840992508183840990508181820982818309905082818209905082818209905082818309915082828609945082858609915082828309915082828509935082848509915082828309915082828309915082828509915082828609945082858609915082828309915082828309915082828609915082828509935082848609945082858609915082828309915082828509935082848509915082828309905082818209905082818209905082818309915082828609945082858509935082848509915082828309915082828309915082828609945082858609915082828309915082828609915082828309915082828309915082828609915082828509935082848509915082828309905082818209905082818309905082818509905082818209905082818209905082818209905082818209905082818309915082828609945082858609915082828609915082828509935082848509915082828509915082828309915082828309905082818309905082818209838182099050838182099050838182099050838182099050838183099150508281830991508282860994508285850993508284850991508282860994508285850993508284860994508285850993508284860994508285860991508282860991508282830991508282850993508284850991508282830991508282860994508285850993508284850991508282850991508282860994508285850993508284860994508285850993508284850991508282830991508282850991508282860994508285860991508282860991508282850993508284860994508285850993508284860994508285850993508284850991508282850991508282830991508282860994508285850993508284850991508282850991508282830991508282860994508285860991508282830990508281820990508281830990508281860990508281820990508281820990508281820990508281820990508281830991508282850993508284860994508285850993508284860994508285860991508282860991508282830991508282830991508282830991508282860991508282850993508284850991508282850991508282830991508282860994508285860991508282860991508282850993508284860994508285860991508282830991508282850993508284860994508285860991508282850993508284860994508285850993508284850991508282850991508282860994508285850993508284850991508282850991508282830991508282830991508282860994508285860991508282830991508282830991508282860991508282850993508284860994508285860991508282860990508281820990508281820990508281830991508282850993508284850991508282860994508285850993508284860994508285850993508284860994508285850993508284850991508282850990508281850991508282830991508282830991508282820991505081818509935081848409925081838509935081848409925081838509935081848509905081818509905081818409925050808284099250808384099250808384099250808384099250808384099250808384099250808384099250808384099250808384099250808384099250808384099250808384099250808384099250808384099250808384099250808384099250808384099250808384099250808384099250808384099250808384099250808384099250808384099250808384099250808384099250808384099250808384099250808384099250808384099250808384099250808384099250808384099250808384099250808384099250808384099250808384099250808384099250808384099250808384099250808384099250808384099250808384099250808384099250808384099250808384099250808384099250808384099250808384099250808384099250808384099250808384099250808384099250808384099250808384099250808384099250808384099250808384099250808384099250808384099250808384099250808384099250808384099250808384099250808384099250808384099250808384099250808384099250808384099250808384099250808384099250808384099250808384099250808384099250808384099250808384099250808384099250808384099250808384099250808384099250808384099250808384099250808384099250808384099250808384099250808384099250808384099250808384099250808384099250808384099250808384099250808384099250808384099250808384099250808384099250808384099250808384099250808384099250808384099250808384099250808384099250808384099250808384099250808384099250808384099250808384099250808384099250808384099250808384099250808384099250808384099250808384099250808384099250808384099250808384099250808384099250808384099250808384099250808384099250808384099250808384099250808384099250808384099250808384099250808384099250808384099250808384099250808384099250808383099392505050565b8280548282559060005260206000209081019282156129f9579160200282015b828111156129f95782518255916020019190600101906129de565b50612a05929150612a09565b5090565b5b80821115612a055760008155600101612a0a565b6001600160a01b0381168114612a3357600080fd5b50565b60008060408385031215612a4957600080fd5b8235612a5481612a1e565b946020939093013593505050565b60008083601f840112612a7457600080fd5b5081356001600160401b03811115612a8b57600080fd5b6020830191508360208260051b8501011115612aa657600080fd5b9250929050565b600080600080600060808688031215612ac557600080fd5b8535612ad081612a1e565b9450602086013593506040860135925060608601356001600160401b03811115612af957600080fd5b612b0588828901612a62565b969995985093965092949392505050565b6001600160e01b031981168114612a3357600080fd5b600060208284031215612b3e57600080fd5b81356109a681612b16565b60008060408385031215612b5c57600080fd5b50508035926020909101359150565b60008083601f840112612b7d57600080fd5b5081356001600160401b03811115612b9457600080fd5b602083019150836020828501011115612aa657600080fd5b60008060008060008060008060a0898b031215612bc857600080fd5b8835612bd381612a1e565b97506020890135612be381612a1e565b965060408901356001600160401b03811115612bfe57600080fd5b612c0a8b828c01612a62565b90975095505060608901356001600160401b03811115612c2957600080fd5b612c358b828c01612a62565b90955093505060808901356001600160401b03811115612c5457600080fd5b612c608b828c01612b6b565b999c989b5096995094979396929594505050565b634e487b7160e01b600052604160045260246000fd5b601f8201601f191681016001600160401b0381118282101715612caf57612caf612c74565b6040525050565b60006001600160401b03821115612ccf57612ccf612c74565b5060051b60200190565b600082601f830112612cea57600080fd5b8135612cf581612cb6565b604051612d028282612c8a565b80915082815260208101915060208360051b860101925085831115612d2657600080fd5b602085015b83811015612d43578035835260209283019201612d2b565b5095945050505050565b60008060408385031215612d6057600080fd5b82356001600160401b03811115612d7657600080fd5b8301601f81018513612d8757600080fd5b8035612d9281612cb6565b604051612d9f8282612c8a565b80915082815260208101915060208360051b850101925087831115612dc357600080fd5b6020840193505b82841015612dee578335612ddd81612a1e565b825260209384019390910190612dca565b945050505060208301356001600160401b03811115612e0c57600080fd5b612e1885828601612cd9565b9150509250929050565b600081518084526020840193506020830160005b82811015612e54578151865260209586019590910190600101612e36565b5093949350505050565b6020815260006109a66020830184612e22565b60008060008060008060a08789031215612e8a57600080fd5b8635612e9581612a1e565b9550602087013594506040870135935060608701356001600160401b03811115612ebe57600080fd5b612eca89828a01612a62565b979a9699509497949695608090950135949350505050565b600080600060608486031215612ef757600080fd5b8335612f0281612a1e565b95602085013595506040909401359392505050565b600080600060608486031215612f2c57600080fd5b505081359360208301359350604090920135919050565b8015158114612a3357600080fd5b60008060408385031215612f6457600080fd5b8235612f6f81612a1e565b91506020830135612f7f81612f43565b809150509250929050565b600080600060408486031215612f9f57600080fd5b8335925060208401356001600160401b03811115612fbc57600080fd5b612fc886828701612a62565b9497909650939450505050565b600060208284031215612fe757600080fd5b5035919050565b6000806040838503121561300157600080fd5b823561300c81612a1e565b91506020830135612f7f81612a1e565b60008060008060008060a0878903121561303557600080fd5b863561304081612a1e565b9550602087013561305081612a1e565b9450604087013593506060870135925060808701356001600160401b0381111561307957600080fd5b61308589828a01612b6b565b979a9699509497509295939492505050565b6020808252601a908201527f636f6e646974696f6e206e6f7420707265706172656420796574000000000000604082015260600190565b634e487b7160e01b600052601160045260246000fd5b81810381811115610379576103796130ce565b634e487b7160e01b600052603260045260246000fd5b60208082526015908201527419dbdd081a5b9d985b1a59081a5b99195e081cd95d605a1b604082015260600190565b80820180821115610379576103796130ce565b8082028115828204841417610379576103796130ce565b634e487b7160e01b600052601260045260246000fd5b60008261318b5761318b613166565b500490565b6000602082840312156131a257600080fd5b81516109a681612f43565b81835260006001600160fb1b038311156131c657600080fd5b8260051b80836020870137939093016020019392505050565b8481526060602082015260006131f96060830185876131ad565b905082604083015295945050505050565b6020808252602e908201527f455243313135353a2049447320616e642076616c756573206d7573742068617660408201526d652073616d65206c656e6774687360901b606082015260800190565b60208082526028908201527f455243313135353a207461726765742061646472657373206d757374206265206040820152676e6f6e2d7a65726f60c01b606082015260800190565b60208082526038908201527f455243313135353a206e656564206f70657261746f7220617070726f76616c2060408201527f666f7220337264207061727479207472616e73666572732e0000000000000000606082015260800190565b6040815260006133116040830186886131ad565b82810360208401526133248185876131ad565b979650505050505050565b6001600160a01b03851681526060602082018190526000906131f990830185876131ad565b6020808252602a908201527f74686572652073686f756c64206265206d6f7265207468616e206f6e65206f756040820152691d18dbdb59481cdb1bdd60b21b606082015260800190565b60006040820184835260406020840152808454808352606085019150856000526020600020925060005b818110156133e65783548352600193840193602090930192016133c8565b50909695505050505050565b60008261340157613401613166565b500690565b60005b83811015613421578181015183820152602001613409565b50506000910152565b6000825161343c818460208701613406565b9190910192915050565b6000806040838503121561345957600080fd5b505080516020909101519092909150565b60008151808452613482816020860160208601613406565b601f01601f19169290920160200192915050565b6001600160a01b0386811682528516602082015260a0604082018190526000906134c290830186612e22565b82810360608401526134d48186612e22565b905082810360808401526134e8818561346a565b98975050505050505050565b60006020828403121561350657600080fd5b81516109a681612b16565b600060033d111561352a5760046000803e5060005160e01c5b90565b600060443d101561353b5790565b6040513d600319016004823e80513d60248201116001600160401b038211171561356457505090565b80820180516001600160401b0381111561357f575050505090565b3d8401600319018282016020011115613599575050505090565b610b8f60208285010185612c8a565b6020815260006109a6602083018461346a565b6040815260006135ce6040830185612e22565b82810360208401526135e08185612e22565b95945050505050565b6001600160a01b03868116825285166020820152604081018490526060810183905260a0608082018190526000906133249083018461346a56fe30644e72e131a029b85045b68181585d97816a916871ca8d3c208c16d87cfd47a2646970667358221220185e4ff99676855c73689d633d4c243da7fca7b1ffe1db70fda0a9599617d2cb64736f6c634300081c0033","linkReferences":{}},"methodIdentifiers":{"balanceOf(address,uint256)":"00fdd58e","balanceOfBatch(address[],uint256[])":"4e1273f4","getCollectionId(bytes32,bytes32,uint256)":"856296f7","getConditionId(address,bytes32,uint256)":"852c6ae2","getOutcomeSlotCount(bytes32)":"d42dc0c2","getPositionId(address,bytes32)":"39dd7530","isApprovedForAll(address,address)":"e985e9c5","mergePositions(address,bytes32,bytes32,uint256[],uint256)":"9e7212ad","payoutDenominator(bytes32)":"dd34de67","payoutNumerators(bytes32,uint256)":"0504c814","prepareCondition(address,bytes32,uint256)":"d96ee754","redeemPositions(address,bytes32,bytes32,uint256[])":"01b7037c","reportPayouts(bytes32,uint256[])":"c49298ac","safeBatchTransferFrom(address,address,uint256[],uint256[],bytes)":"2eb2c2d6","safeTransferFrom(address,address,uint256,uint256,bytes)":"f242432a","setApprovalForAll(address,bool)":"a22cb465","splitPosition(address,bytes32,bytes32,uint256[],uint256)":"72ce4275","supportsInterface(bytes4)":"01ffc9a7"},"id":26}