{"abi":[{"type":"function","name":"balanceOf","inputs":[{"name":"owner","type":"address","internalType":"address"},{"name":"id","type":"uint256","internalType":"uint256"}],"outputs":[{"name":"","type":"uint256","internalType":"uint256"}],"stateMutability":"view"},{"type":"function","name":"balanceOfBatch","inputs":[{"name":"owners","type":"address[]","internalType":"address[]"},{"name":"ids","type":"uint256[]","internalType":"uint256[]"}],"outputs":[{"name":"","type":"uint256[]","internalType":"uint256[]"}],"stateMutability":"view"},{"type":"function","name":"isApprovedForAll","inputs":[{"name":"owner","type":"address","internalType":"address"},{"name":"operator","type":"address","internalType":"address"}],"outputs":[{"name":"","type":"bool","internalType":"bool"}],"stateMutability":"view"},{"type":"function","name":"mint","inputs":[{"name":"to","type":"address","internalType":"address"},{"name":"id","type":"uint256","internalType":"uint256"},{"name":"value","type":"uint256","internalType":"uint256"},{"name":"data","type":"bytes","internalType":"bytes"}],"outputs":[],"stateMutability":"nonpayable"},{"type":"function","name":"safeBatchTransferFrom","inputs":[{"name":"from","type":"address","internalType":"address"},{"name":"to","type":"address","internalType":"address"},{"name":"ids","type":"uint256[]","internalType":"uint256[]"},{"name":"values","type":"uint256[]","internalType":"uint256[]"},{"name":"data","type":"bytes","internalType":"bytes"}],"outputs":[],"stateMutability":"nonpayable"},{"type":"function","name":"safeTransferFrom","inputs":[{"name":"from","type":"address","internalType":"address"},{"name":"to","type":"address","internalType":"address"},{"name":"id","type":"uint256","internalType":"uint256"},{"name":"value","type":"uint256","internalType":"uint256"},{"name":"data","type":"bytes","internalType":"bytes"}],"outputs":[],"stateMutability":"nonpayable"},{"type":"function","name":"setApprovalForAll","inputs":[{"name":"operator","type":"address","internalType":"address"},{"name":"approved","type":"bool","internalType":"bool"}],"outputs":[],"stateMutability":"nonpayable"},{"type":"function","name":"supportsInterface","inputs":[{"name":"interfaceId","type":"bytes4","internalType":"bytes4"}],"outputs":[{"name":"","type":"bool","internalType":"bool"}],"stateMutability":"view"},{"type":"event","name":"ApprovalForAll","inputs":[{"name":"owner","type":"address","indexed":true,"internalType":"address"},{"name":"operator","type":"address","indexed":true,"internalType":"address"},{"name":"approved","type":"bool","indexed":false,"internalType":"bool"}],"anonymous":false},{"type":"event","name":"TransferBatch","inputs":[{"name":"operator","type":"address","indexed":true,"internalType":"address"},{"name":"from","type":"address","indexed":true,"internalType":"address"},{"name":"to","type":"address","indexed":true,"internalType":"address"},{"name":"ids","type":"uint256[]","indexed":false,"internalType":"uint256[]"},{"name":"values","type":"uint256[]","indexed":false,"internalType":"uint256[]"}],"anonymous":false},{"type":"event","name":"TransferSingle","inputs":[{"name":"operator","type":"address","indexed":true,"internalType":"address"},{"name":"from","type":"address","indexed":true,"internalType":"address"},{"name":"to","type":"address","indexed":true,"internalType":"address"},{"name":"id","type":"uint256","indexed":false,"internalType":"uint256"},{"name":"value","type":"uint256","indexed":false,"internalType":"uint256"}],"anonymous":false},{"type":"event","name":"URI","inputs":[{"name":"value","type":"string","indexed":false,"internalType":"string"},{"name":"id","type":"uint256","indexed":true,"internalType":"uint256"}],"anonymous":false}],"bytecode":{"object":"0x608060405261001d6301ffc9a760e01b6001600160e01b0361003b16565b610036636cdb3d1360e11b6001600160e01b0361003b16565b6100bf565b6001600160e01b0319808216141561009a576040805162461bcd60e51b815260206004820152601c60248201527f4552433136353a20696e76616c696420696e7465726661636520696400000000604482015290519081900360640190fd5b6001600160e01b0319166000908152602081905260409020805460ff19166001179055565b6114cd806100ce6000396000f3fe608060405234801561001057600080fd5b50600436106100875760003560e01c8063731133e91161005b578063731133e9146103a1578063a22cb46514610461578063e985e9c51461048f578063f242432a146104bd57610087565b8062fdd58e1461008c57806301ffc9a7146100ca5780632eb2c2d6146101055780634e1273f41461022e575b600080fd5b6100b8600480360360408110156100a257600080fd5b506001600160a01b038135169060200135610550565b60408051918252519081900360200190f35b6100f1600480360360208110156100e057600080fd5b50356001600160e01b0319166105bf565b604080519115158252519081900360200190f35b61022c600480360360a081101561011b57600080fd5b6001600160a01b038235811692602081013590911691810190606081016040820135600160201b81111561014e57600080fd5b82018360208201111561016057600080fd5b803590602001918460208302840111600160201b8311171561018157600080fd5b919390929091602081019035600160201b81111561019e57600080fd5b8201836020820111156101b057600080fd5b803590602001918460208302840111600160201b831117156101d157600080fd5b919390929091602081019035600160201b8111156101ee57600080fd5b82018360208201111561020057600080fd5b803590602001918460018302840111600160201b8311171561022157600080fd5b5090925090506105de565b005b6103516004803603604081101561024457600080fd5b810190602081018135600160201b81111561025e57600080fd5b82018360208201111561027057600080fd5b803590602001918460208302840111600160201b8311171561029157600080fd5b9190808060200260200160405190810160405280939291908181526020018383602002808284376000920191909152509295949360208101935035915050600160201b8111156102e057600080fd5b8201836020820111156102f257600080fd5b803590602001918460208302840111600160201b8311171561031357600080fd5b91908080602002602001604051908101604052809392919081815260200183836020028082843760009201919091525092955061096b945050505050565b60408051602080825283518183015283519192839290830191858101910280838360005b8381101561038d578181015183820152602001610375565b505050509050019250505060405180910390f35b61022c600480360360808110156103b757600080fd5b6001600160a01b038235169160208101359160408201359190810190608081016060820135600160201b8111156103ed57600080fd5b8201836020820111156103ff57600080fd5b803590602001918460018302840111600160201b8311171561042057600080fd5b91908080601f016020809104026020016040519081016040528093929190818152602001838380828437600092019190915250929550610ad2945050505050565b61022c6004803603604081101561047757600080fd5b506001600160a01b0381351690602001351515610ae4565b6100f1600480360360408110156104a557600080fd5b506001600160a01b0381358116916020013516610b52565b61022c600480360360a08110156104d357600080fd5b6001600160a01b03823581169260208101359091169160408201359160608101359181019060a081016080820135600160201b81111561051257600080fd5b82018360208201111561052457600080fd5b803590602001918460018302840111600160201b8311171561054557600080fd5b509092509050610b80565b60006001600160a01b0383166105975760405162461bcd60e51b815260040180806020018281038252602b8152602001806112f6602b913960400191505060405180910390fd5b5060009081526001602090815260408083206001600160a01b03949094168352929052205490565b6001600160e01b03191660009081526020819052604090205460ff1690565b84831461061c5760405162461bcd60e51b815260040180806020018281038252602e8152602001806113e1602e913960400191505060405180910390fd5b6001600160a01b0387166106615760405162461bcd60e51b81526004018080602001828103825260288152602001806113216028913960400191505060405180910390fd5b6001600160a01b0388163314806106a057506001600160a01b038816600090815260026020908152604080832033845290915290205460ff1615156001145b6106db5760405162461bcd60e51b815260040180806020018281038252603881526020018061140f6038913960400191505060405180910390fd5b60005b8581101561080b5760008787838181106106f457fe5b905060200201359050600086868481811061070b57fe5b90506020020135905061075d816001600085815260200190815260200160002060008e6001600160a01b03166001600160a01b0316815260200190815260200160002054610d5c90919063ffffffff16565b6001600084815260200190815260200160002060008d6001600160a01b03166001600160a01b03168152602001908152602001600020819055506107e06001600084815260200190815260200160002060008c6001600160a01b03166001600160a01b031681526020019081526020016000205482610da590919063ffffffff16565b60009283526001602081815260408086206001600160a01b038f1687529091529093205550016106de565b50866001600160a01b0316886001600160a01b0316336001600160a01b03167f4a39dc06d4c0dbc64b70af90fd698a233a518aa5d07e595d983b8c0526c8f7fb898989896040518080602001806020018381038352878782818152602001925060200280828437600083820152601f01601f19169091018481038352858152602090810191508690860280828437600083820152604051601f909101601f19169092018290039850909650505050505050a461096133898989898080602002602001604051908101604052809392919081815260200183836020028082843760009201919091525050604080516020808d0282810182019093528c82529093508c92508b91829185019084908082843760009201919091525050604080516020601f8c018190048102820181019092528a815292508a9150899081908401838280828437600092019190915250610dff92505050565b5050505050505050565b606081518351146109ad5760405162461bcd60e51b815260040180806020018281038252602e8152602001806113b3602e913960400191505060405180910390fd5b606083516040519080825280602002602001820160405280156109da578160200160208202803883390190505b50905060005b8451811015610aca5760006001600160a01b0316858281518110610a0057fe5b60200260200101516001600160a01b03161415610a4e5760405162461bcd60e51b815260040180806020018281038252603481526020018061137f6034913960400191505060405180910390fd5b60016000858381518110610a5e57fe5b602002602001015181526020019081526020016000206000868381518110610a8257fe5b60200260200101516001600160a01b03166001600160a01b0316815260200190815260200160002054828281518110610ab757fe5b60209081029190910101526001016109e0565b509392505050565b610ade84848484610fdc565b50505050565b3360008181526002602090815260408083206001600160a01b03871680855290835292819020805460ff1916861515908117909155815190815290519293927f17307eab39ab6107e8899845ad3d59bd9653f200f220920489ca2b5937696c31929181900390910190a35050565b6001600160a01b03918216600090815260026020908152604080832093909416825291909152205460ff1690565b6001600160a01b038516610bc55760405162461bcd60e51b81526004018080602001828103825260288152602001806113216028913960400191505060405180910390fd5b6001600160a01b038616331480610c0457506001600160a01b038616600090815260026020908152604080832033845290915290205460ff1615156001145b610c3f5760405162461bcd60e51b815260040180806020018281038252603881526020018061140f6038913960400191505060405180910390fd5b60008481526001602090815260408083206001600160a01b038a168452909152902054610c72908463ffffffff610d5c16565b60008581526001602090815260408083206001600160a01b038b81168552925280832093909355871681522054610caa908490610da5565b60008581526001602090815260408083206001600160a01b03808b16808652918452938290209490945580518881529182018790528051928a169233927fc3d58168c5ae7397731d063d5bbf3d657854427343f4c083240f7aacaa2d0f6292908290030190a4610d54338787878787878080601f0160208091040260200160405190810160405280939291908181526020018383808284376000920191909152506110c092505050565b505050505050565b6000610d9e83836040518060400160405280601e81526020017f536166654d6174683a207375627472616374696f6e206f766572666c6f770000815250611222565b9392505050565b600082820183811015610d9e576040805162461bcd60e51b815260206004820152601b60248201527f536166654d6174683a206164646974696f6e206f766572666c6f770000000000604482015290519081900360640190fd5b610e11846001600160a01b03166112b9565b15610d545760405163bc197c8160e01b8082526001600160a01b0388811660048401908152888216602485015260a060448501908152875160a4860152875193949289169363bc197c81938c938c938b938b938b9392916064820191608481019160c4909101906020808a01910280838360005b83811015610e9d578181015183820152602001610e85565b50505050905001848103835286818151815260200191508051906020019060200280838360005b83811015610edc578181015183820152602001610ec4565b50505050905001848103825285818151815260200191508051906020019080838360005b83811015610f18578181015183820152602001610f00565b50505050905090810190601f168015610f455780820380516001836020036101000a031916815260200191505b5098505050505050505050602060405180830381600087803b158015610f6a57600080fd5b505af1158015610f7e573d6000803e3d6000fd5b505050506040513d6020811015610f9457600080fd5b50516001600160e01b03191614610d545760405162461bcd60e51b81526004018080602001828103825260368152602001806113496036913960400191505060405180910390fd5b6001600160a01b0384166110215760405162461bcd60e51b81526004018080602001828103825260218152602001806114476021913960400191505060405180910390fd5b60008381526001602090815260408083206001600160a01b038816845290915290205461105590839063ffffffff610da516565b60008481526001602090815260408083206001600160a01b038916808552908352818420949094558051878152918201869052805133927fc3d58168c5ae7397731d063d5bbf3d657854427343f4c083240f7aacaa2d0f6292908290030190a4610ade336000868686865b6110d2846001600160a01b03166112b9565b15610d545760405163f23a6e6160e01b8082526001600160a01b03888116600484019081528882166024850152604484018790526064840186905260a060848501908152855160a4860152855193949289169363f23a6e61938c938c938b938b938b93929160c490910190602085019080838360005b83811015611160578181015183820152602001611148565b50505050905090810190601f16801561118d5780820380516001836020036101000a031916815260200191505b509650505050505050602060405180830381600087803b1580156111b057600080fd5b505af11580156111c4573d6000803e3d6000fd5b505050506040513d60208110156111da57600080fd5b50516001600160e01b03191614610d545760405162461bcd60e51b81526004018080602001828103825260318152602001806114686031913960400191505060405180910390fd5b600081848411156112b15760405162461bcd60e51b81526004018080602001828103825283818151815260200191508051906020019080838360005b8381101561127657818101518382015260200161125e565b50505050905090810190601f1680156112a35780820380516001836020036101000a031916815260200191505b509250505060405180910390fd5b505050900390565b6000813f7fc5d2460186f7233c927e7db2dcc703c0e500b653ca82273b7bfad8045d85a4708181148015906112ed57508115155b94935050505056fe455243313135353a2062616c616e636520717565727920666f7220746865207a65726f2061646472657373455243313135353a207461726765742061646472657373206d757374206265206e6f6e2d7a65726f455243313135353a20676f7420756e6b6e6f776e2076616c75652066726f6d206f6e4552433131353542617463685265636569766564455243313135353a20736f6d65206164647265737320696e2062617463682062616c616e6365207175657279206973207a65726f455243313135353a206f776e65727320616e6420494473206d75737420686176652073616d65206c656e67746873455243313135353a2049447320616e642076616c756573206d75737420686176652073616d65206c656e67746873455243313135353a206e656564206f70657261746f7220617070726f76616c20666f7220337264207061727479207472616e73666572732e455243313135353a206d696e7420746f20746865207a65726f2061646472657373455243313135353a20676f7420756e6b6e6f776e2076616c75652066726f6d206f6e455243313135355265636569766564a265627a7a723158201890cb4bb7365ed23aff6c7131470223a658920a325fbf467daf7b8dbb0e789864736f6c63430005110032","linkReferences":{}},"methodIdentifiers":{"balanceOf(address,uint256)":"00fdd58e","balanceOfBatch(address[],uint256[])":"4e1273f4","isApprovedForAll(address,address)":"e985e9c5","mint(address,uint256,uint256,bytes)":"731133e9","safeBatchTransferFrom(address,address,uint256[],uint256[],bytes)":"2eb2c2d6","safeTransferFrom(address,address,uint256,uint256,bytes)":"f242432a","setApprovalForAll(address,bool)":"a22cb465","supportsInterface(bytes4)":"01ffc9a7"},"id":35}